:020000040800F2
:1000000000000220A92200085D1E00085F1E0008F3
:10001000611E0008631E0008651E00080000000045
:10002000000000000000000000000000671E000843
:10003000691E0008000000006B1E00086D1E00080D
:10004000F9220008F9220008F9220008F922000824
:10005000F9220008F9220008F9220008F922000814
:10006000F9220008F9220008F9220008F922000804
:10007000F9220008F9220008F9220008F9220008F4
:10008000F9220008F9220008F9220008F9220008E4
:10009000F9220008F9220008F9220008F9220008D4
:1000A000F9220008F9220008F9220008F9220008C4
:1000B000F9220008F9220008F9220008F9220008B4
:1000C000F9220008F9220008F9220008F9220008A4
:1000D000F9220008751E0008F9220008F92200081C
:1000E000F9220008F9220008F9220008F922000884
:1000F000F9220008F9220008851E0008F9220008EC
:10010000F9220008F9220008F9220008F922000863
:10011000F9220008F9220008F9220008F922000853
:10012000951E0008F9220008A51E0008B51E00084B
:10013000F9220008F9220008F9220008F922000833
:10014000F9220008F9220008F9220008F922000823
:10015000F9220008F9220008C51E0008F92200084B
:10016000F9220008F9220008F9220008F922000803
:10017000F9220008F9220008F92200080000000016
:08018000F9220008F922000831
:1001C00010B5054C237833B9044B13B10448AFF391
:1001D00000800123237010BD100A002000000000E1
:1001E00090FD000808B5034B1BB103490348AFF36A
:1001F000008008BD00000000140A002090FD0008E7
:1002000081F0004102E000BF83F0004330B54FEAC7
:1002100041044FEA430594EA050F08BF90EA020F34
:100220001FBF54EA000C55EA020C7FEA645C7FEAC7
:10023000655C00F0E2804FEA5454D4EB5555B8BFEA
:100240006D420CDD2C4480EA020281EA030382EA5B
:10025000000083EA010180EA020281EA0303362DED
:1002600088BF30BD11F0004F4FEA01314FF4801CC0
:100270004CEA113102D0404261EB410113F0004FD2
:100280004FEA03334CEA133302D0524263EB430389
:1002900094EA050F00F0A780A4F10104D5F1200E27
:1002A0000DDB02FA0EFC22FA05F2801841F1000182
:1002B00003FA0EF2801843FA05F359410EE0A5F156
:1002C00020050EF1200E012A03FA0EFC28BF4CF087
:1002D000020C43FA05F3C01851EBE37101F000453D
:1002E00007D54FF0000EDCF1000C7EEB00006EEB4A
:1002F0000101B1F5801F1BD3B1F5001F0CD34908D4
:100300005FEA30004FEA3C0C04F101044FEA44522A
:1003100012F5800F80F09A80BCF1004F08BF5FEAB1
:10032000500C50F1000041EB045141EA050130BD91
:100330005FEA4C0C404141EB0101013C28BFB1F5A3
:10034000801FE9D291F0000F04BF01460020B1FAEE
:1003500081F308BF2033A3F10B03B3F120020CDAC1
:100360000C3208DD02F1140CC2F10C0201FA0CF09F
:1003700021FA02F10CE002F11402D8BFC2F1200C04
:1003800001FA02F120FA0CFCDCBF41EA0C019040BA
:10039000E41AA2BF01EB0451294330BD6FEA040403
:1003A0001F3C1CDA0C340EDC04F11404C4F12002EE
:1003B00020FA04F001FA02F340EA030021FA04F300
:1003C00045EA030130BDC4F10C04C4F1200220FA57
:1003D00002F001FA04F340EA0300294630BD21FA95
:1003E00004F0294630BD94F0000F83F4801306BF5B
:1003F00081F480110134013D4EE77FEA645C18BF4F
:100400007FEA655C29D094EA050F08BF90EA020FE5
:1004100005D054EA000C04BF1946104630BD91EADD
:10042000030F1EBF0021002030BD5FEA545C05D1E0
:100430004000494128BF41F0004130BD14F580041F
:100440003CBF01F5801130BD01F0004545F0FE4193
:1004500041F470014FF0000030BD7FEA645C1ABFC8
:10046000194610467FEA655C1CBF0B46024650EAFF
:10047000013406BF52EA033591EA030F41F400212B
:1004800030BD00BF90F0000F04BF0021704730B5B1
:100490004FF4806404F132044FF000054FF0000186
:1004A00050E700BF90F0000F04BF0021704730B547
:1004B0004FF4806404F1320410F0004548BF40421C
:1004C0004FF000013EE700BF42004FEAE2014FEA71
:1004D00031014FEA02701FBF12F07F4393F07F4F4C
:1004E00081F06051704732F07F4208BF704793F04F
:1004F0007F4F04BF41F40021704730B54FF4607462
:1005000001F0004521F000411CE700BF50EA010264
:1005100008BF704730B54FF000050AE050EA01020D
:1005200008BF704730B511F0004502D5404261EB7D
:1005300041014FF4806404F132045FEA915C3FF4BE
:10054000D8AE4FF003025FEADC0C18BF03325FEA5B
:10055000DC0C18BF033202EBDC02C2F1200300FA0C
:1005600003FC20FA02F001FA03FE40EA0E0021FA31
:1005700002F11444BDE600BF70B54FF0FF0C4CF41F
:10058000E06C1CEA11541DBF1CEA135594EA0C0FD1
:1005900095EA0C0F00F0DEF82C4481EA030621EA0C
:1005A0004C5123EA4C5350EA013518BF52EA033547
:1005B00041F4801143F4801338D0A0FB02CE4FF0F9
:1005C0000005E1FB02E506F00042E0FB03E54FF029
:1005D0000006E1FB03569CF0000F18BF4EF0010E21
:1005E000A4F1FF04B6F5007F64F5407404D25FEA1D
:1005F0004E0E6D4146EB060642EAC62141EA5551D0
:100600004FEAC52040EA5E504FEACE2EB4F1FD0C11
:1006100088BFBCF5E06F1ED8BEF1004F08BF5FEA8F
:10062000500E50F1000041EB045170BD06F0004641
:1006300046EA010140EA020081EA0301B4EB5C04EE
:10064000C2BFD4EB0C0541EA045170BD41F48011E6
:100650004FF0000E013C00F3AB8014F1360FDEBF0B
:10066000002001F0004170BDC4F10004203C35DAE7
:100670000C341BDC04F11404C4F1200500FA05F36A
:1006800020FA04F001FA05F240EA020001F000420B
:1006900021F0004110EBD37021FA04F642EB060181
:1006A0005EEA430E08BF20EAD37070BDC4F10C04AB
:1006B000C4F1200500FA04F320FA05F001FA04F26F
:1006C00040EA020001F0004110EBD37041F100015B
:1006D0005EEA430E08BF20EAD37070BDC4F1200566
:1006E00000FA05F24EEA020E20FA04F301FA05F2CE
:1006F00043EA020321FA04F001F0004121FA04F276
:1007000020EA020000EBD3705EEA430E08BF20EA45
:10071000D37070BD94F0000F0FD101F0004640007F
:1007200041EB010111F4801F08BF013CF7D041EA01
:10073000060195F0000F18BF704703F00046520005
:1007400043EB030313F4801F08BF013DF7D043EAD6
:100750000603704794EA0C0F0CEA135518BF95EA8C
:100760000C0F0CD050EA410618BF52EA4306D1D113
:1007700081EA030101F000414FF0000070BD50EA32
:10078000410606BF1046194652EA430619D094EABC
:100790000C0F02D150EA013613D195EA0C0F05D1A6
:1007A00052EA03361CBF104619460AD181EA0301FA
:1007B00001F0004141F0FE4141F470014FF00000B2
:1007C00070BD41F0FE4141F4780170BD70B54FF04D
:1007D000FF0C4CF4E06C1CEA11541DBF1CEA1355CD
:1007E00094EA0C0F95EA0C0F00F0A7F8A4EB0504AF
:1007F00081EA030E52EA03354FEA013100F08880A6
:100800004FEA03334FF0805545EA131343EA12636E
:100810004FEA022245EA111545EA10654FEA002623
:100820000EF000419D4208BF964244F1FD0404F5DC
:10083000407402D25B084FEA3202B61A65EB030538
:100840005B084FEA32024FF480104FF4002CB6EBF5
:10085000020E75EB030E22BFB61A754640EA0C0075
:100860005B084FEA3202B6EB020E75EB030E22BFB5
:10087000B61A754640EA5C005B084FEA3202B6EBF6
:10088000020E75EB030E22BFB61A754640EA9C00B5
:100890005B084FEA3202B6EB020E75EB030E22BF85
:1008A000B61A754640EADC0055EA060E18D04FEA43
:1008B000051545EA16754FEA06164FEAC30343EAE3
:1008C00052734FEAC2025FEA1C1CC0D111F4801FB0
:1008D0000BD141EA00014FF000004FF0004CB6E7A9
:1008E00011F4801F04BF01430020B4F1FD0C88BF48
:1008F000BCF5E06F3FF6AFAEB5EB030C04BFB6EB53
:10090000020C5FEA500C50F1000041EB045170BD45
:100910000EF0004E4EEA113114EB5C04C2BFD4EB72
:100920000C0541EA045170BD41F480114FF0000EF6
:10093000013C90E645EA060E8DE60CEA135594EA72
:100940000C0F08BF95EA0C0F3FF43BAF94EA0C0F75
:100950000AD150EA01347FF434AF95EA0C0F7FF4EA
:1009600025AF104619462CE795EA0C0F06D152EA3E
:1009700003353FF4FDAE1046194622E750EA410622
:1009800018BF52EA43067FF4C5AE50EA41047FF433
:100990000DAF52EA43057FF4EBAE12E74FF0FF3C98
:1009A00006E000BF4FF0010C02E000BF4FF0010C69
:1009B0004DF804CD4FEA410C7FEA6C5C4FEA430CE2
:1009C00018BF7FEA6C5C1BD001B050EA410C0CBF31
:1009D00052EA430C91EA030F02BF90EA020F002093
:1009E000704710F1000F91EA030F58BF994208BFFA
:1009F00090422CBFD8176FEAE37040F001007047B7
:100A00004FEA410C7FEA6C5C02D150EA013C07D10D
:100A10004FEA430C7FEA6C5CD6D152EA033CD3D058
:100A20005DF8040B704700BF8446104662468C4652
:100A30001946634600E000BF01B5FFF7B7FF002885
:100A400048BF10F1000F01BD4DF808EDFFF7F4FFAE
:100A50000CBF012000205DF808FB00BF4DF808ED39
:100A6000FFF7EAFF34BF012000205DF808FB00BF5C
:100A70004DF808EDFFF7E0FF94BF012000205DF87E
:100A800008FB00BF4DF808EDFFF7CEFF94BF012033
:100A900000205DF808FB00BF4DF808EDFFF7C4FF2C
:100AA00034BF012000205DF808FB00BF4A0011D2CE
:100AB00012F5001211D20DD56FF47873B3EB6252B8
:100AC0000ED44FEAC12343F0004343EA505323FAC4
:100AD00002F070474FF00000704750EA013002D139
:100AE0004FF0FF3070474FF0000070474FEA41026F
:100AF000B2F1E04324BFB3F5001CDCF1FE5C0DD97C
:100B000001F0004C4FEAC0024CEA5070B2F1004FC5
:100B100040EB830008BF20F00100704711F0804FC8
:100B200021D113F13872BCBF01F00040704741F48D
:100B300080114FEA5252C2F11802C2F1200C10FA91
:100B40000CF320FA02F018BF40F001004FEAC12375
:100B50004FEAD32303FA0CFC40EA0C0023FA02F319
:100B60004FEA4303CCE77FEA625307D150EA0133EF
:100B70001EBF4FF0FE4040F44000704701F00040BF
:100B800040F0FE4040F40000704700BF80F000409D
:100B900002E000BF81F0004142001FBF5FEA410355
:100BA00092EA030F7FEA226C7FEA236C6AD04FEA55
:100BB0001262D2EB1363C1BFD2184140484041409A
:100BC000B8BF5B42192B88BF704710F0004F40F44C
:100BD000000020F07F4018BF404211F0004F41F468
:100BE000000121F07F4118BF494292EA030F3FD034
:100BF000A2F1010241FA03FC10EB0C00C3F1200347
:100C000001FA03F100F0004302D5494260EB4000D5
:100C1000B0F5000F13D3B0F1807F06D340084FEA40
:100C2000310102F10102FE2A51D2B1F1004F40EB35
:100C3000C25008BF20F0010040EA0300704749009D
:100C400040EB0000013A28BFB0F5000FEDD2B0FA3A
:100C500080FCACF1080CB2EB0C0200FA0CF0AABF5D
:100C600000EBC25052421843BCBFD04018437047FB
:100C700092F0000F81F4000106BF80F40000013201
:100C8000013BB5E74FEA41037FEA226C18BF7FEAD8
:100C9000236C21D092EA030F04D092F0000F08BF1A
:100CA0000846704790EA010F1CBF0020704712F001
:100CB0007F4F04D1400028BF40F00040704712F140
:100CC00000723CBF00F50000704700F0004343F0A5
:100CD000FE4040F4000070477FEA226216BF0846DB
:100CE0007FEA23630146420206BF5FEA412390EA9E
:100CF000010F40F4800070474FF0000304E000BF94
:100D000010F0004348BF40425FEA000C08BF704744
:100D100043F0964301464FF000001CE050EA010208
:100D200008BF70474FF000030AE000BF50EA01021D
:100D300008BF704711F0004302D5404261EB41010A
:100D40005FEA010C02BF84460146002043F0B6432F
:100D500008BFA3F18053A3F50003BCFA8CF2083A54
:100D6000A3EBC25310DB01FA02FC634400FA02FC5D
:100D7000C2F12002BCF1004F20FA02F243EB020064
:100D800008BF20F00100704702F1200201FA02FCC6
:100D9000C2F1200250EA4C0021FA02F243EB0200B9
:100DA00008BF20EADC7070474FF0FF0C1CEAD052FD
:100DB0001EBF1CEAD15392EA0C0F93EA0C0F6FD0BE
:100DC0001A4480EA010C400218BF5FEA41211ED09C
:100DD0004FF0006343EA501043EA5111A0FB013188
:100DE0000CF00040B1F5000F3EBF490041EAD3715D
:100DF0005B0040EA010062F17F02FD2A1DD8B3F1D9
:100E0000004F40EBC25008BF20F00100704790F047
:100E1000000F0CF0004C08BF49024CEA502040EA99
:100E200051207F3AC2BFD2F1FF0340EAC25070475F
:100E300040F400004FF00003013A5DDC12F1190F9D
:100E4000DCBF00F000407047C2F10002410021FA0F
:100E500002F1C2F1200200FA02FC5FEA310040F127
:100E6000000053EA4C0308BF20EADC70704792F0A0
:100E7000000F00F0004C02BF400010F4000F013AD8
:100E8000F9D040EA0C0093F0000F01F0004C02BFD3
:100E9000490011F4000F013BF9D041EA0C018FE742
:100EA0000CEAD15392EA0C0F18BF93EA0C0F0AD048
:100EB00030F0004C18BF31F0004CD8D180EA01006E
:100EC00000F00040704790F0000F17BF90F0004F07
:100ED000084691F0000F91F0004F14D092EA0C0FE9
:100EE00001D142020FD193EA0C0F03D14B0218BF7C
:100EF000084608D180EA010000F0004040F0FE40C2
:100F000040F40000704740F0FE4040F4400070475D
:100F10004FF0FF0C1CEAD0521EBF1CEAD15392EADC
:100F20000C0F93EA0C0F69D0A2EB030280EA010CCC
:100F300049024FEA402037D04FF0805343EA111165
:100F400043EA10130CF000408B4238BF5B0042F1C3
:100F50007D024FF4000C8B4224BF5B1A40EA0C0068
:100F6000B3EB510F24BFA3EB510340EA5C00B3EB9A
:100F7000910F24BFA3EB910340EA9C00B3EBD10F88
:100F800024BFA3EBD10340EADC001B0118BF5FEADA
:100F90001C1CE0D1FD2A3FF650AF8B4240EBC25003
:100FA00008BF20F0010070470CF0004C4CEA5020C4
:100FB0007F32C2BFD2F1FF0340EAC250704740F413
:100FC00000004FF00003013A37E792F0000F00F005
:100FD000004C02BF400010F4000F013AF9D040EA83
:100FE0000C0093F0000F01F0004C02BF490011F417
:100FF000000F013BF9D041EA0C0195E70CEAD1530F
:1010000092EA0C0F08D142027FF47DAF93EA0C0FF5
:101010007FF470AF084676E793EA0C0F04D14B02D9
:101020003FF44CAF08466EE730F0004C18BF31F08B
:10103000004CCAD130F000427FF45CAF31F0004385
:101040007FF43CAF5FE700BF4FF0FF3C06E000BF1E
:101050004FF0010C02E000BF4FF0010C4DF804CD41
:101060004FEA40024FEA41037FEA226C18BF7FEA51
:10107000236C11D001B052EA530C18BF90EA010F53
:1010800058BFB2EB030088BFC81738BF6FEAE170E2
:1010900018BF40F0010070477FEA226C02D15FEA7E
:1010A000402C05D17FEA236CE4D15FEA412CE1D0EA
:1010B0005DF8040B704700BF844608466146FFE7B1
:1010C0000FB5FFF7C9FF002848BF10F1000F0FBD93
:1010D0004DF808EDFFF7F4FF0CBF012000205DF88C
:1010E00008FB00BF4DF808EDFFF7EAFF34BF012011
:1010F00000205DF808FB00BF4DF808EDFFF7E0FFAA
:1011000094BF012000205DF808FB00BF4DF808EDFA
:10111000FFF7D2FF94BF012000205DF808FB00BF5D
:101120004DF808EDFFF7C8FF34BF012000205DF83F
:1011300008FB00BF42000ED2B2F1FE4F0BD34FF0BE
:101140009E03B3EB126209D44FEA002343F000433D
:1011500023FA02F070474FF00000704712F1610F60
:1011600001D1420202D14FF0FF3070474FF0000032
:10117000704700BF53B94AB9002908BF00281CBFF7
:101180004FF0FF314FF0FF3000F074B9ADF1080CB3
:101190006DE904CE00F006F8DDF804E0DDE9022395
:1011A00004B070472DE9F047089E0D460446884676
:1011B000002B4DD18A42944668D9B2FA82F252B1DC
:1011C00001FA02F3C2F1200120FA01F10CFA02FC4B
:1011D00041EA030894404FEA1C45210CB8FBF5FE98
:1011E0001FFA8CF705FB1E8341EA03430EFB07F150
:1011F00099420BD91CEB03030EF1FF3080F01E81E6
:10120000994240F21B81AEF1020E63445B1AA4B214
:10121000B3FBF5F005FB103344EA034400FB07F78A
:10122000A7420AD91CEB040400F1FF3380F00881C7
:10123000A74240F2058164440238E41B40EA0E40B4
:1012400000211EB1D4400023C6E90043BDE8F08769
:101250008B4208D9002E00F0EE800021C6E900057F
:101260000846BDE8F087B3FA83F100294AD1AB42C2
:1012700002D3824200F2F980841A65EB0303012055
:101280009846002EE2D0C6E90048DFE702B9FFDE4B
:10129000B2FA82F2002A40F09180A1EB0C054FEAED
:1012A0001C471FFA8CFE0121B5FBF7F307FB135017
:1012B000250C45EA00450EFB03F0A84208D91CEBBB
:1012C000050503F1FF3802D2A84200F2CB80434665
:1012D0002D1AA4B2B5FBF7F007FB105544EA0544FC
:1012E0000EFB00FEA64508D91CEB040400F1FF35F7
:1012F00002D2A64500F2BB802846A4EB0E0440EAC9
:1013000003409EE7C1F120078B4022FA07FC4CEA1C
:10131000030C20FA07F405FA01F31C43FD404FEAE1
:101320001C4900FA01F3B5FBF9F8200C1FFA8CFEFA
:1013300009FB185540EA054508FB0EF0A84202FAE1
:1013400001F20BD91CEB050508F1FF3A80F088800B
:10135000A84240F28580A8F1020865442D1AA4B283
:10136000B5FBF9F009FB105544EA054500FB0EFEFC
:10137000AE4508D91CEB050500F1FF346CD2AE4533
:101380006AD90238654440EA0840A0FB0294A5EB04
:101390000E05A542C846A64656D353D05EB1B3EB60
:1013A000080265EB0E0505FA07F722FA01F3CD40B6
:1013B0001F43C6E900750021BDE8F087C2F1200394
:1013C00020FA03F10CFA02FC25FA03F395400D43D1
:1013D0004FEA1C471FFA8CFEB3FBF7F107FB1130F5
:1013E0002B0C43EA004301FB0EF0984204FA02F48E
:1013F00008D91CEB030301F1FF382FD298422DD9F5
:10140000023963441B1AADB2B3FBF7F007FB10338C
:1014100045EA034500FB0EF3AB4208D91CEB05057A
:1014200000F1FF3816D2AB4214D902386544ED1AE8
:1014300040EA014138E73146304607E78646E5E6AF
:101440001846FAE64B45A9D2B9EB020864EB0C0E3C
:101450000138A3E74046EAE7204694E74146D1E752
:10146000D0467BE7023B654432E7084609E764441F
:10147000023842E7704700BF844641EA000313F098
:1014800003036DD1403A41D351F8043B40F8043B8B
:1014900051F8043B40F8043B51F8043B40F8043B4E
:1014A00051F8043B40F8043B51F8043B40F8043B3E
:1014B00051F8043B40F8043B51F8043B40F8043B2E
:1014C00051F8043B40F8043B51F8043B40F8043B1E
:1014D00051F8043B40F8043B51F8043B40F8043B0E
:1014E00051F8043B40F8043B51F8043B40F8043BFE
:1014F00051F8043B40F8043B51F8043B40F8043BEE
:1015000051F8043B40F8043B403ABDD2303211D38D
:1015100051F8043B40F8043B51F8043B40F8043BCD
:1015200051F8043B40F8043B51F8043B40F8043BBD
:10153000103AEDD20C3205D351F8043B40F8043B8D
:10154000043AF9D2043208D0D2071CBF11F8013B8B
:1015500000F8013B01D30B8803806046704700BF51
:10156000082A13D38B078DD010F003038AD0C3F160
:101570000403D21ADB071CBF11F8013B00F8013B42
:1015800080D331F8023B20F8023B7BE7043AD9D301
:10159000013A11F8013B00F8013BF9D20B780370D6
:1015A0004B7843708B788370604670470000000072
:1015B000000000000000000000000000000000002B
:1015C00090F800F06DE9024520F007016FF0000C83
:1015D00010F0070491F820F040F049804FF000042B
:1015E0006FF00700D1E9002391F840F000F1080006
:1015F00082FA4CF2A4FA8CF283FA4CF3A2FA8CF33E
:101600004BBBD1E9022382FA4CF200F10800A4FAA4
:101610008CF283FA4CF3A2FA8CF3E3B9D1E90423F8
:1016200082FA4CF200F10800A4FA8CF283FA4CF32F
:10163000A2FA8CF37BB9D1E9062301F1200182FAE9
:101640004CF200F10800A4FA8CF283FA4CF3A2FAEF
:101650008CF3002BC6D0002A04BF04301A4612BAFD
:10166000B2FA82F2FDE8024500EBD2007047D1E900
:10167000002304F00305C4F100004FEAC50514F08F
:10168000040F91F840F00CFA05F562EA05021CBF60
:1016900063EA050362464FF00004A9E7000000007A
:1016A00001F0FF01102A2BDB10F0070F08D010F813
:1016B000013B013A8B422DD010F0070F42B3F6D117
:1016C000F0B441EA012141EA014122F007047FF030
:1016D00000070023F0E80256083C85EA010586EA87
:1016E000010685FA47F5A3FA87F586FA47F6A5FAC3
:1016F00087F68EB9EED1F0BC01F0FF0102F00702CF
:1017000032B110F8013B013A83EA010313B1F8D179
:101710000020704701387047002D06BF354603385A
:10172000073815F0010F07D1013015F4807F02BF93
:10173000013015F4C03F0130F0BC0138704700BFE4
:101740004FEA410C7FEA6C5C02D150EA013C0AD1BD
:101750004FEA430C7FEA6C5C02D152EA033C02D1AF
:101760004FF0000070474FF0010070474FEA410210
:1017700012F5001215D211D56FF47873B3EB6252E3
:1017800012D94FEAC12343F0004343EA505311F00A
:10179000004F23FA02F018BF404270474FF000009C
:1017A000704750EA013005D111F0004008BF6FF0DA
:1017B000004070474FF00000704700BF4FEA400202
:1017C0004FEA41037FEA226C02D15FEA402C08D144
:1017D0007FEA236C02D15FEA412C02D14FF0000076
:1017E00070474FF00100704700B585B000230093AB
:1017F0000193029303931748174A02604FF4803213
:10180000426083600361037680F820304FF080529D
:10181000C2624FF0C0628262C3600122C26180F87E
:101820003030426100F06AFE68B90723009301235B
:101830000193002302936946064800F0A5FF28B9EA
:1018400005B05DF804FB00F063FAEEE700F060FA23
:10185000F6E700BF2C0A00200020014000B585B04B
:10186000002300930193029303931748174A0260E1
:101870004FF48032426083600361037680F8203049
:101880004FF08052C2624FF0C0628262C360012298
:10189000C26180F83030426100F030FE68B9042344
:1018A000009301230193002302936946064800F048
:1018B0006BFF28B905B05DF804FB00F029FAEEE7EC
:1018C00000F026FAF6E700BF740A0020002101406C
:1018D00030B58BB004460023059306930793089315
:1018E00009930368404A934204D0404A93423DD052
:1018F0000BB030BD002501953D4B5A6C42F480720F
:101900005A645A6C02F480720192019A02951A6B21
:1019100042F001021A631B6B03F001030293029B66
:10192000802305930323069305A9324801F0C8FAE2
:101930003148324B036045608560C5604FF4806379
:1019400003614FF4006343614FF4005383614FF42C
:101950008073C3610562456201F0CCF818B9264B6B
:10196000A3639C63C4E700F0D3F9F8E7002503956F
:101970001F4B5A6C42F400725A645A6C02F40072A3
:101980000392039A04951A6B42F001021A631B6BCF
:1019900003F001030493049B102305930323069390
:1019A00005A9144801F08CFA1548164B03604FF056
:1019B000007343608560C5604FF4806303614FF43A
:1019C000006343614FF4005383614FF48073C3613C
:1019D0000562456201F08EF818B9094BA3639C6358
:1019E00086E700F095F9F8E700200140002101406A
:1019F0000038024000000240BC0A0020106402408F
:101A00001C0B00205864024010B582B000240194E1
:101A1000154B1A6B42F480021A631B6B03F48003AC
:101A20000193019B22462146382000F08BFF38208D
:101A300000F0C0FF224621463A2000F083FF3A2002
:101A400000F0B8FF224621463B2000F07BFF3B2000
:101A500000F0B0FF22462146462000F073FF4620EA
:101A600000F0A8FF02B010BD003802402DE9F0419F
:101A700086B0002301930293039304930593224BB2
:101A80001B6813B106B0BDE8F0811F4B01221A603C
:101A9000002600961D4B9A6B42F001029A639B6BE5
:101AA00003F001030093009B4FF48058CDF80480AD
:101AB00002270297032504950C24059401A91448D4
:101AC00001F0FEF94FF68073019302970396049597
:101AD000059401A90F4801F0F3F94CF23373019317
:101AE000029703960495059401A90B4801F0E8F9C3
:101AF000CDF80480029703960495059401A9074840
:101B000001F0DEF9BEE700BF7C0B00200038024088
:101B10000014024000100240000C02400018024075
:101B200010B58EB000230793089309930A930B9383
:101B30000C930D93009301930293039304930593E5
:101B400006931A484FF02042026002F5827242600A
:101B500006228260C3600361102242618361C36117
:101B6000036243624FF480518162C3624FF480414B
:101B700001634363836343640F2307930893FF2147
:101B800009910A930B9211210C910824009401935E
:101B900009230293049205916A4607A901F0CEFD3C
:101BA00008B90EB010BD00F0B3F8FAE7800B0020C2
:101BB00008B5FFF75BFF08BDF0B58FB000240994AE
:101BC0000A940B940C940D9401943E4B1A6B42F0C2
:101BD00010021A631A6B02F010020192019A029429
:101BE0001A6B42F004021A631A6B02F004020292AA
:101BF000029A03941A6B42F020021A631A6B02F0E5
:101C000020020392039A04941A6B42F080021A6332
:101C10001A6B02F080020492049A05941A6B42F047
:101C200001021A631A6B02F001020592059A0694EA
:101C30001A6B42F002021A631A6B02F00202069259
:101C4000069A07941A6B42F008021A631A6B02F0A4
:101C500008020792079A08941A6B42F040021A632E
:101C60001B6B03F040030893089B174F22464FF469
:101C7000C061384601F016FA144E22464FF4004176
:101C8000304601F00FFA0C2309930A9401250B95B5
:101C900009A90F4801F014F94FF4C06309930A959C
:101CA0000B950C9409A9384601F00AF94FF400434A
:101CB00009930A950B940C9409A9304601F000F998
:101CC0000FB0F0BD00380240001402400004024092
:101CD0000010024010B582B0C4B28DF80440022357
:101CE000012201A9024802F0C4FB204602B010BD47
:101CF000240D002070B50C461646002504E014F8AB
:101D0000010BFFF7E7FF0135B542F8DBF0B270BD1C
:101D100072B6FEE700B595B03022002108A808F0A1
:101D200093F9002303930493059306930793019378
:101D3000204A116C41F080511164126C02F0805203
:101D40000192019A02931C4B1A6842F480421A6075
:101D50001B6803F480430293029B012308934FF412
:101D60008033099302220E924FF480030F930423D1
:101D70001093A82111911292139308A801F0A2F9CF
:101D800098B90F23039302230493002305934FF480
:101D9000A05306934FF480530793052103A801F045
:101DA000F7FB20B915B05DF804FBFFF7B1FFFFF7B3
:101DB000AFFF00BF003802400070004008B500F0DF
:101DC000C3FAFFF7A7FFFFF7F7FEFFF71DFEFFF7C8
:101DD0000BFDFFF7A5FE00F0CBF900F0CDF800F009
:101DE00003F9FFF73BFD05F029FA012005F080F922
:101DF0004FF4FA7000F0D4FA05F0E4FD074801F062
:101E000047FD074C0021204602F0D8F80421204667
:101E100002F0D4F806F0AAFAFCE700BFD40B0020C9
:101E20001C0C002082B0002100910B4B5A6C42F434
:101E300080425A645A6C02F480420092009A0191E6
:101E40001A6C42F080521A641B6C03F080530193A9
:101E5000019B02B0704700BF00380240FEE7FEE77A
:101E6000FEE7FEE7FEE770477047704708B500F0F1
:101E700085FA08BD08B5024802F0F2FB08BD00BFB4
:101E8000240D002008B5024801F05EFD08BD00BF2A
:101E90001C0C002008B5024800F024FF08BD00BF5C
:101EA000BC0A002008B5024800F01CFF08BD00BFB6
:101EB000640C002008B5024800F014FF08BD00BF04
:101EC0001C0B002008B5024800F00CFF08BD00BF45
:101ED000C40C00200120704708B507F0DBFD162375
:101EE00003604FF0FF3008BD08B54FF0FF31FFF73A
:101EF000F3FFFEE770B50C461646002506E0AFF38B
:101F00000080214601F8010B01350C46B542F6DB95
:101F1000304670BD4FF0FF3070474FF400534B60B8
:101F200000207047012070470020704710B503461D
:101F30000C4A0D490D48006840B10C480068034444
:101F4000521A934206D8094A136010BD0748084C3C
:101F50000460F2E707F09EFD0C2303604FF0FF30B2
:101F6000F3E700BF0000022000040000D00B0020B7
:101F7000509E00207047000000B587B000230293F8
:101F80000393049305930093019316484FF0804206
:101F900002604360836042F2CF02C260036180232B
:101FA000836101F0F3FD98B94FF48053029302A9C5
:101FB0000C4801F0EFFE70B9202300930023019339
:101FC0006946084802F0B4F840B907B05DF804FB70
:101FD000FFF79EFEE8E7FFF79BFEEDE7FFF798FEB1
:101FE000F3E700BFD40B002000B591B000230C93A1
:101FF0000D930E930F930793089309930A930B93F2
:102000000593069301930293039304932F48304A58
:102010000260A722426083604FF6FF72C2600361D4
:1020200043618023836101F0B1FD002839D14FF471
:1020300080530C930CA9254801F0ACFE002833D145
:10204000224801F0CFFD002831D10423079350230B
:102050000893002309930B9307A91C4801F075FF0F
:1020600040BB00230593069305A9184802F060F8C9
:1020700018BB00220192012302930392049201A94A
:10208000124801F019FED8B90223019302930422E9
:102090000DEB02010D4801F00FFEA0B911B05DF883
:1020A00004FBFFF735FEC2E7FFF732FEC8E7FFF794
:1020B0002FFECAE7FFF72CFED3E7FFF729FED8E78C
:1020C000FFF726FEE0E7FFF723FEE7E71C0C002002
:1020D0000004014010B588B00023039304930593D6
:1020E000069307930368B3F1804F04D01D4A9342CF
:1020F0000ED008B010BD002300931B4B1A6C42F0A9
:1021000001021A641B6C03F001030093009BF0E7CB
:1021100000240194144B5A6C42F002025A645A6C27
:1021200002F002020192019A02941A6B42F0040238
:102130001A631B6B03F004030293029B4023039377
:10214000022304930323079303A9084800F0B8FE71
:10215000224621462E2000F0F5FB2E2000F02AFC1E
:10216000C7E700BF000401400038024000080240F9
:1021700008B50A480A4B03604FF4E133436000237B
:102180008360C36003610C2242618361C36102F01A
:1021900041F900B908BDFFF7BBFDFBE7240D0020A6
:1021A0000010014030B589B00023039304930593D8
:1021B00006930793026803F1804303F588339A423C
:1021C00001D009B030BD04460025019503F59433D4
:1021D0005A6C42F010025A645A6C02F010020192DA
:1021E000019A02951A6B42F001021A631B6B03F00D
:1021F00001030293029B4FF4C063039302230493F1
:10220000032306930723079303A9224800F058FEEF
:102210002148224B03604FF0006343608560C56036
:102220004FF48063036145618561C5614FF480337C
:102230000362456200F05EFC28BB174BA3639C63FE
:102240001748184B03604FF00063436040238360DE
:102250000023C3604FF48062026143618361C36104
:102260004FF400320262436200F044FC70B90C4B40
:1022700063639C6300220321252000F063FB25207B
:1022800000F098FB9DE7FFF743FDD6E7FFF740FD21
:10229000EDE700BF00000240640C002040640240F3
:1022A000C40C0020B8640240DFF834D00D480E4959
:1022B0000E4A002302E0D458C4500433C4188C42A0
:1022C000F9D30B4A0B4C002301E013600432A24205
:1022D000FBD3FFF74FFE07F0E3FBFFF76FFD7047FF
:1022E0000000022000000020100A002054600108B5
:1022F000100A0020509E0020FEE7000010B50446A2
:102300000E4B18784FF47A73B3FBF0F30C4A106855
:10231000B0FBF3F000F05CFB68B90F2C01D9012091
:102320000AE0002221464FF0FF3000F00BFB054B86
:102330001C60002000E0012010BD00BF0400002050
:10234000000000200800002008B50B4B1A6842F47A
:1023500000721A601A6842F480621A601A6842F4C5
:1023600080721A60032000F0DBFA0F20FFF7C6FF2F
:10237000FFF758FD002008BD003C0240034A1168E9
:10238000034B1B780B441360704700BF680D00209F
:1023900004000020014B1868704700BF680D002042
:1023A00038B50446FFF7F6FF0546B4F1FF3F02D00B
:1023B000044B1B781C44FFF7EDFF401BA042FAD3EF
:1023C00038BD00BF040000204A4B5A6822F4403256
:1023D0005A605A6841680A435A600268536823F495
:1023E0008073536002685368016943EA01235360B4
:1023F0000268536823F04073536002685368816831
:102400000B4353600268936823F40063936002688F
:102410009368C1680B439360826A374B9A4257D0E6
:102420000268936823F07063936002689368816A1E
:102430000B4393600268936823F0405393600268F3
:102440009368C16A0B4393600268936823F00203A8
:10245000936002689368017E43EA4103936090F8B9
:102460002030002B3FD00268536843F40063536070
:102470000268536823F46043536001684B68426A02
:10248000013A43EA42334B600268D36A23F4700393
:10249000D3620168CB6AC269013A43EA0253CB6254
:1024A0000268936823F4007393600268936890F85D
:1024B000301043EA412393600268936823F48063F9
:1024C000936002689368416943EA8123936070478F
:1024D0000268936823F0706393600268936823F046
:1024E00040539360B0E70268536823F4006353607D
:1024F000CAE700BF002301400100000F38B310B548
:102500000446036C43B1236C13F0100F0BD0012071
:10251000002384F83C3010BDFFF7DAF90023636430
:1025200084F83C30EFE7236C23F4885323F0020354
:1025300043F0020323642046FFF746FF0020606457
:10254000236C23F0030343F001032364E0E701203D
:102550007047000010B582B013460022019290F837
:102560003C20012A00F0AE800446012280F83C2085
:102570000268906810F0010F13D1906840F00100DC
:102580009060534A1068534AA2FB0020800C00EB75
:102590004000019002E00198013801900198002864
:1025A000F9D12268906810F4807F03D0906820F4FD
:1025B000807090602268906810F0010F77D0206CD6
:1025C00020F4E06020F0010040F480702064526844
:1025D00012F4806F05D0226C22F4405242F48052F3
:1025E0002264226C12F4805F36D0626C22F0060204
:1025F0006264002284F83C20A26B3748D063A26B4F
:1026000036481064A26B3648D06422686FF022000E
:1026100010602068426842F08062426020688268F0
:1026200042F48072826020680A4600F14C01A06B7F
:1026300000F0C6FA2B4B5B6813F01F0F27D12368FD
:10264000294A934211D002F58072934207D0274A5B
:10265000934214D0002033E000226264C9E702F5FF
:102660000072526812F01F0FF1D19A6812F0405FA9
:102670002AD19A6842F080429A60002020E002F558
:102680008072526812F0100FEFD0002018E023681B
:10269000154A934201D0002012E09A6812F0405F80
:1026A00014D19A6842F080429A60002008E0236CBE
:1026B00043F010032364636C43F001036364002060
:1026C00002B010BD0220FBE70020F9E70020F7E789
:1026D0000000002083DE1B4317270008F5260008B2
:1026E0000127000800230140002001400022014092
:1026F0007047704708B5806BFFF7FBFF08BD704758
:1027000008B5806B40230364436C43F004034364C7
:10271000FFF7F5FF08BD08B50346806B026C12F0A9
:10272000500F25D1036C43F40073036403689A6867
:1027300012F0405F19D1027EBAB9DA6A12F4700F52
:1027400003D09A6812F4806F0FD15A6822F02002E9
:102750005A60036C23F480730364036C13F4805F8A
:1027600003D1036C43F001030364FFF7C1FF08BD0D
:10277000026C12F0100F04D1826BD26C1846904795
:10278000F5E7FFF7BCFFF2E730B482B00023019316
:1027900090F83C30012B00F0BB80012380F83C30E6
:1027A0000B68092B41D90468E2689BB203EB430331
:1027B0001E3B4FF0070C0CFA03F322EA0303E3601D
:1027C0000468E2680B8803EB43031E3B8D6805FA3F
:1027D00003F31343E3604B68062B3DD80468626B38
:1027E00003EB8303053B4FF01F0C0CFA03F322EAC3
:1027F000030363630468626B4B6803EB8303053B6D
:10280000B1F800C00CFA03F3134363630268414B51
:102810009A4251D002683F4B9A4256D0002380F82A
:102820003C30184602B030BC7047046822699BB245
:1028300003EB43034FF0070C0CFA03F322EA030304
:102840002361046822690B8803EB43038D6805FA52
:1028500003F313432361BEE70C2B16D805682A6BDC
:1028600003EB8303233B1F2404FA03F322EA03034D
:102870002B6305682A6B4B6803EB8303233B0C88AF
:1028800004FA03F313432B63C0E70568EA6A03EB1A
:102890008303413B1F2404FA03F322EA0303EB62A0
:1028A0000568EA6A4B6803EB8303413B0C8804FA32
:1028B00003F31343EB62A9E70B68122BAAD1164A64
:1028C000536843F480035360A4E70B68103B012B6B
:1028D000A4D8114A536843F4000353600B68102BCB
:1028E0009CD10E4B1B6802F1467202F52E3202F2A9
:1028F0008332A2FB03239B0C03EB83035B00019356
:1029000002E0019B013B0193019B002BF9D185E77C
:10291000022087E700200140002301400000002042
:10292000074AD36823F4E0631B041B0C000200F485
:10293000E060034343F0BF6343F40033D360704768
:1029400000ED00E000B5194BDB68C3F30223C3F1CF
:10295000070CBCF1040F28BF4FF0040C03F1040E68
:10296000BEF1060F18D9033B4FF0FF3E0EFA0CFCE8
:1029700021EA0C0199400EFA03F322EA03031943FA
:1029800000280BDB0901C9B200F1604000F561408D
:1029900080F800135DF804FB0023E5E700F00F006A
:1029A0000901C9B2024B1954F4E700BF00ED00E081
:1029B00014ED00E0002807DB00F01F0240090123AE
:1029C0009340024A42F82030704700BF00E100E027
:1029D0000138B0F1807F0BD24FF0E0235861054AF7
:1029E000F02182F823100020986107221A617047B5
:1029F0000120704700ED00E030B405682C6824F435
:102A000080242C60046863608368402B05D00368D1
:102A100099600368DA6030BC704703689A600368A5
:102A2000D960F8E710B40368D9B210390B4AA2FB99
:102A3000014212090A4CA25CC2655F2908D923F43D
:102A40007F7323F0030304338365806D10BC7047EC
:102A500023F47F7323F003038365F6E7ABAAAAAAE6
:102A6000C0FD0008836A826992B9012B0AD0022B4B
:102A700002D00BB100207047C36A13F0807F28D1C9
:102A800000207047C36AB3F1C07F24D00020704794
:102A9000B2F5005F09D0022B25D9032B25D1C36ADB
:102AA00013F0807F23D100207047032B03D8DFE889
:102AB00003F01404140A00207047C36A13F0807FE7
:102AC0000DD100207047C36AB3F1C07F09D0002048
:102AD0007047012070470120704701207047012096
:102AE0007047012070470120704700207047012087
:102AF0007047000070B50446FFF74CFC002C5BD01B
:102B00000546022384F83530002384F834302268E7
:102B1000136823F00103136023681A6812F0010F91
:102B20000AD0FFF737FC431B052BF5D9202363653B
:102B3000032084F8350070BD1A6820481040616891
:102B4000A2680A43E1680A4321690A4361690A43AA
:102B5000A1690A43E1690A43216A0A430243616A9F
:102B600004291ED01A602668756925F00705636A76
:102B70001D43042B07D1A36A1D43E36A1BB1204602
:102B8000FFF770FF90B975612046FFF74BFFE26DCC
:102B90003F239340836000206065012384F8353033
:102BA000C9E7E16A206B01430A43DBE74023636521
:102BB000012084F83500BEE70120BCE73F8010F01B
:102BC00038B50446856D90F8340001282BD00120DB
:102BD00084F8340094F83500C0B2012804D00023F2
:102BE00084F83430022038BD022084F835000020FB
:102BF00060652046FFF700FFE26D3F239340AB6026
:102C00002268136843F016031360236C23B1226813
:102C1000136843F0080313602268136843F001034C
:102C200013600020DFE70220DDE770B50446866D03
:102C3000FFF7B0FB94F83530DBB2022B06D08023CF
:102C40006365002384F83430012070BD0546226896
:102C5000136823F0160313602268536923F080037E
:102C60005361236CE3B12268136823F008031360F7
:102C70002268136823F00103136023681B6813F0B4
:102C8000010F11D0FFF786FB431B052BF5D920233D
:102C90006365032084F83500002384F83430D4E7DA
:102CA000A36C002BDFD1E3E7E26D3F239340B360D9
:102CB000012384F83530002084F83400C5E790F80B
:102CC0003530DBB2022B03D08023436501207047EF
:102CD000052380F835300268136823F00103136080
:102CE00000207047F0B583B0044600230193724B77
:102CF0001D68724BA3FB0535AD0A876D3E68C26D3A
:102D000008239340334210D003681A6812F0040F6E
:102D10000BD01A6822F004021A60C26D0823934097
:102D2000BB60436D43F001034365E26D01239340B3
:102D3000334209D02268526912F0800F04D0BB6080
:102D4000636D43F002036365E26D042393403342F5
:102D500009D02268126812F0020F04D0BB60636DC4
:102D600043F004036365E26D10239340334224D0A3
:102D70002268126812F0080F1FD0BB6023681A681F
:102D800012F4802F0DD01B6813F4002F04D1236C94
:102D90009BB12046984710E0A36C73B1204698473A
:102DA0000BE01A6812F4807F03D11A6822F008023F
:102DB0001A60236C0BB120469847E26D20239340A4
:102DC000334255D02268126812F0100F50D0BB6009
:102DD00094F83530DBB2052B0ED023681A6812F454
:102DE000802F33D01B6813F4002F2AD1636C002B83
:102DF0003ED0204698473BE02268136823F0160334
:102E000013602268536923F080035361236CA3B1DC
:102E10002268136823F008031360E26D3F23934098
:102E2000BB60012384F83530002384F83430236DEF
:102E3000002B3FD0204698473CE0A36C002BE7D105
:102E4000EBE7E36BA3B12046984711E01A6812F450
:102E5000807F09D11A6822F010021A60012384F8D9
:102E60003530002384F83430E36B0BB120469847AB
:102E7000636DFBB1636D13F0010F17D0052384F868
:102E800035302268136823F001031360019B01337E
:102E90000193AB4204D823681B6813F0010FF5D1EE
:102EA000012384F83530002384F83430E36C0BB10F
:102EB0002046984703B0F0BD00000020B5814E1BAE
:102EC00000230F2B00F2E48070B582B060E08568CB
:102ED0005E000324B44025EA0405CC68B4402C43CA
:102EE0008460456825EA02054C68C4F300129A40E4
:102EF0002A4342605AE0DC08083450F8246003F0AA
:102F0000070295000F22AA4026EA020E0A69AA408B
:102F100042EA0E0240F824205CE0072200E0002292
:102F200002FA0EF22A4302345A4D45F824205A4A36
:102F300094686FEA0C0224EA0C054E6816F4801FB0
:102F400001D04CEA0405544CA560E46802EA04058B
:102F50004E6816F4001F01D04CEA04054E4CE560A3
:102F6000646802EA04054E6816F4003F01D04CEA9A
:102F70000405494C6560246822404D6815F4803F83
:102F800001D04CEA0402444C226001330F2B7DD85F
:102F900001229A400C6804EA020C32EA0404F4D1DB
:102FA0004C6804F00304013C012C90D94A6802F0FB
:102FB0000302032A09D0C4685D000322AA4024EA60
:102FC00002048A68AA402243C2604A6802F00302EF
:102FD000022A90D004684FEA430E032202FA0EF24E
:102FE00024EA02044A6802F0030202FA0EF22243C3
:102FF00002604A6812F4403FC7D000220192274A7B
:10300000546C44F480445464526C02F48042019243
:10301000019A9C08A51C1F4A52F8255003F0030290
:103020004FEA820E0F2202FA0EF225EA02051C4A2E
:1030300090423FF474AF02F5806290421AD002F5DC
:103040008062904218D002F58062904216D002F55C
:103050008062904214D002F58062904212D002F554
:103060008062904210D002F5806290423FF455AFEA
:10307000082255E7012253E7022251E703224FE7D6
:1030800004224DE705224BE7062249E702B070BD56
:10309000704700BF00380140003C0140003802404A
:1030A000000002400AB181617047090481617047E4
:1030B000436901EA030221EA030141EA0241816115
:1030C00070470000002800F0E08170B582B004462F
:1030D000036813F0010F3BD09F4B9B6803F00C0378
:1030E000042B2CD09C4B9B6803F00C03082B21D0A5
:1030F0006368B3F5803F4FD0B3F5A02F52D0964B05
:103100001A6822F480321A601A6822F480221A6047
:103110006368002B50D0FFF73DF905468E4B1B68C6
:1031200013F4003F14D1FFF735F9401B6428F5D99B
:103130000320B1E1884B5B6813F4800FD8D0864B35
:103140001B6813F4003F03D06368002B00F09F81DD
:10315000236813F0020F54D07F4B9B6813F00C0FC1
:103160003ED07D4B9B6803F00C03082B33D0E36803
:10317000002B68D0794B01221A60FFF70BF9054646
:10318000754B1B6813F0020F54D1FFF703F9401B76
:103190000228F5D903207FE16F4A136843F4803396
:1031A0001360B5E76C4B1A6842F480221A601A6803
:1031B00042F480321A60ABE7FFF7ECF80546664B45
:1031C0001B6813F4003FC3D0FFF7E4F8401B6428EA
:1031D000F5D9032060E1604B5B6813F4800FC6D122
:1031E0005D4B1B6813F0020F03D0E368012B40F026
:1031F0005081594A136823F0F803216943EAC10357
:103200001360236813F0080F42D063696BB3534B0C
:103210000122C3F8802EFFF7BDF805464E4B5B6FC9
:1032200013F0020F34D1FFF7B5F8401B0228F5D98F
:10323000032031E1484A136823F0F803216943EA87
:10324000C1031360DDE7454B00221A60FFF7A2F8C7
:103250000546414B1B6813F0020FD2D0FFF79AF8D6
:10326000401B0228F5D9032016E13C4B0022C3F88D
:10327000802EFFF78FF80546374B5B6F13F0020F78
:1032800006D0FFF787F8401B0228F5D9032003E199
:10329000236813F0040F77D02F4B1B6C13F0805F63
:1032A00033D1002301932C4B1A6C42F080521A64E4
:1032B0001B6C03F080530193019B0125284B1B6875
:1032C00013F4807F23D0A368012B34D0052B38D092
:1032D000214B1A6F22F001021A671A6F22F00402C2
:1032E0001A67A368002B3DD0FFF754F806461A4B27
:1032F0001B6F13F0020F46D1FFF74CF8801B41F211
:1033000088339842F3D90320C6E00025D6E7144A53
:10331000136843F480731360FFF73CF80646104BC4
:103320001B6813F4807FCED1FFF734F8801B02288E
:10333000F5D90320B0E0084A136F43F00103136787
:10334000CFE7054B1A6F42F004021A671A6F42F07A
:1033500001021A67C5E700BF00380240000047427B
:1033600000700040FFF716F80646524B1B6F13F033
:10337000020F08D0FFF70EF8801B41F28833984205
:10338000F3D9032088E0EDB9A369002B00F0838016
:10339000484A926802F00C02082A51D0022B17D03A
:1033A000454B00221A66FEF7F5FF0446414B1B68A9
:1033B00013F0007F42D0FEF7EDFF001B0228F5D985
:1033C000032069E03B4A136C23F080531364DBE76E
:1033D000394B00221A66FEF7DDFF0546354B1B68A8
:1033E00013F0007F06D0FEF7D5FF401B0228F5D969
:1033F000032051E0E369226A1343626A43EA8213BD
:10340000A26A5208013A43EA0243E26A43EA0263CB
:10341000284A5360284B01221A66FEF7BBFF044678
:10342000244B1B6813F0007F06D1FEF7B3FF001B8F
:103430000228F5D903202FE000202DE000202BE00A
:10344000012B2BD01B4B5B6803F48001E269914296
:1034500026D103F03F02216A8A4223D1616A47F6EE
:10346000C0721A40B2EB811F1ED103F44031A26A30
:103470005208013AB1EB024F18D103F07063E26ACF
:10348000B3EB026F14D1002006E001207047012049
:1034900002E0012000E0002002B070BD0120FBE747
:1034A0000120F9E70120F7E70120F5E70120F3E724
:1034B0000120F1E7003802400000474208B5314BD7
:1034C0009B6803F00C03042B57D0082B57D12D4BCE
:1034D0005A6802F03F025B6813F4800F2AD0294B30
:1034E0005968C1F3881C4FEA4C11B1EB0C006EEB2C
:1034F0000E0E4FEA8E1343EA90638101091A63EBC3
:103500000E03DB0043EA5173C90011EB0C0C43F1CD
:103510000003590200234FEA4C2041EADC51FDF739
:1035200029FE184B5B68C3F3014301335B00B0FB1A
:10353000F3F025E0134B5968C1F3881C4FEA4C1196
:10354000B1EB0C006EEB0E0E4FEA8E1343EA906364
:103550008101091A63EB0E03DB0043EA5173C900D2
:1035600011EB0C0C43F10003990200234FEA8C206D
:1035700041EA9C51FDF7FEFDD3E7034800E0034814
:1035800008BD00BF0038024000127A000024F40099
:10359000002800F09B8070B50D4604464F4B1B6819
:1035A00003F007038B4208D2CBB24C4A1370136866
:1035B00003F007038B4240F08B80236813F0020F67
:1035C00017D013F0040F04D0454A936843F4E05336
:1035D0009360236813F0080F04D0414A936843F4C2
:1035E000604393603E4A936823F0F003A1680B4365
:1035F0009360236813F0010F32D06368012B21D050
:103600009A1E012A25D9364A126812F0020F61D09B
:1036100033498A6822F0030213438B60FEF7BAFE37
:1036200006462F4B9B6803F00C036268B3EB820FD6
:1036300016D0FEF7AFFE801B41F288339842F0D9D6
:10364000032042E0264A126812F4003FE0D1012034
:103650003BE0234A126812F0007FD9D1012034E008
:103660001E4B1B6803F00703AB4207D9EAB21B4BA2
:103670001A701B6803F00703AB422DD1236813F0C7
:10368000040F06D0164A936823F4E053E1680B4315
:103690009360236813F0080F07D0114A936823F44E
:1036A0006043216943EAC1039360FFF707FF0C4BB6
:1036B0009B68C3F303130B4AD35CD8400A4B1860D2
:1036C0000A4B1868FEF71AFE002070BD01207047F3
:1036D0000120FAE70120F8E70120F6E7003C02406C
:1036E00000380240A8FD000800000020080000206B
:1036F000014B1868704700BF0000002008B5FFF7B5
:10370000F7FF044B9B68C3F38223034AD35CD84082
:1037100008BD00BF00380240B8FD000808B5FFF73B
:10372000E7FF044B9B68C3F34233034AD35CD840A2
:1037300008BD00BF00380240B8FD000840B370B5B6
:103740000E461546044690F84930E3B1214651F83B
:10375000080B01F0C5F8A2683146206801F0F4F8C2
:10376000236BA2682946606801F016F92268A168F7
:1037700052F8213043F0010342F82130012384F84C
:103780004930002070BD80F84830FEF711FADDE7BF
:103790000120704710B4036A046A24F00104046233
:1037A000846924F0F00C4CEA021223F00A030B4364
:1037B0008261036210BC704730B4046A24F01004C4
:1037C00004628469056A24F4407C4CEA022C2CF4DF
:1037D000704C1B039BB243EA0C0325F0A0050901C2
:1037E00001F0A00129438361016230BC704710B42D
:1037F000046A24F0100404628469036A24F4704C9F
:103800004CEA023223F0A00343EA0113826103620F
:1038100010BC704730B4046A24F480740462C46934
:10382000056A24F0030C4CEA020C2CF0F00C1B018E
:10383000DBB243EA0C0325F42065090201F42061A0
:103840002943C361016230BC704730B4046A24F478
:1038500080540462C469056A24F4407C4CEA022C5A
:103860002CF4704C1B039BB243EA0C0325F4204557
:10387000090301F420412943C361016230BC704750
:10388000836823F070030B4343F0070383607047A2
:1038900090F83D30DBB2012B32D1022380F83D306D
:1038A0000368194A934220D0B3F1804F1DD0A2F58E
:1038B0007C42934219D002F58062934215D002F502
:1038C0008062934211D002F5784293420DD002F506
:1038D0007052934209D0A2F59432934205D01A68EF
:1038E00042F001021A60002070479A6802F0070255
:1038F000062A07D01A6842F001021A6000207047B9
:1039000001207047002070470000014070470C29DB
:1039100014D8DFE801F0071313130A1313130D1360
:10392000131310000368586B70470368986B704757
:103930000368D86B70470368186C704700207047A5
:10394000704770477047704710B5044603681A699E
:1039500012F0020F11D0DA6812F0020F0DD06FF0E2
:1039600002021A610123037703689B6913F0030FB6
:1039700070D004F071FC0023237723681A6912F0D9
:10398000040F12D0DA6812F0040F0ED06FF00402A8
:103990001A610223237723689B6913F4407F5FD069
:1039A000204604F059FC0023237723681A6912F09B
:1039B000080F12D0DA6812F0080F0ED06FF008026C
:1039C0001A61042323772368DB6913F0030F4ED0B9
:1039D000204604F041FC0023237723681A6912F083
:1039E000100F12D0DA6812F0100F0ED06FF0100224
:1039F0001A61082323772368DB6913F4407F3DD0E5
:103A0000204604F029FC0023237723681A6912F06A
:103A1000010F03D0DA6812F0010F36D123681A695A
:103A200012F0800F03D0DA6812F0800F34D12368CF
:103A30001A6912F0400F03D0DA6812F0400F32D149
:103A400023681A6912F0200F03D0DA6812F0200FF1
:103A500030D110BDFFF775FF2046FFF773FF8AE7EF
:103A60002046FFF76EFF2046FFF76CFF9BE72046DE
:103A7000FFF767FF2046FFF765FFACE72046FFF73B
:103A800060FF2046FFF75EFFBDE76FF001021A619D
:103A90002046FFF755FFC1E76FF080021A6120460C
:103AA00000F08DFBC3E76FF040021A612046FFF77C
:103AB0004AFFC5E76FF020021A61204600F07EFB46
:103AC000C7E700000368304A904212D0B0F1804F3F
:103AD0000FD0A2F57C4290420BD002F5806290425A
:103AE00007D002F58062904203D002F578429042FE
:103AF00003D123F070034A681343234A90422AD02B
:103B0000B0F1804F27D0A2F57C42904223D002F53D
:103B1000806290421FD002F5806290421BD002F575
:103B20007842904217D002F57052904213D002F5BD
:103B3000806290420FD002F5806290420BD0A2F5D5
:103B40009832904207D002F58062904203D002F58D
:103B50008062904203D123F44073CA68134323F078
:103B600080034A69134303608B68C3620B688362F6
:103B7000054B984203D003F58063984201D10B694D
:103B800003630123436170470000014040B310B557
:103B9000044690F83D30F3B1022384F83D302146CD
:103BA00051F8040BFFF78EFF012384F8463084F8A8
:103BB0003E3084F83F3084F8403084F8413084F857
:103BC000423084F8433084F8443084F8453084F837
:103BD0003D30002010BD80F83C30FEF77BFADBE77B
:103BE0000120704740B310B5044690F83D30F3B162
:103BF000022384F83D30214651F8040BFFF762FFA1
:103C0000012384F8463084F83E3084F83F3084F84D
:103C1000403084F8413084F8423084F8433084F8EE
:103C2000443084F8453084F83D30002010BD80F8E1
:103C30003C30FFF76BFEDBE70120704770B4944621
:103C4000046A24F0010404628469066A184DA842DB
:103C50001CD0B0F1804F19D0164A904216D002F510
:103C60008062904212D002F5806290420ED002F53E
:103C7000784290420AD002F57052904206D0A2F5E6
:103C80009432904202D044F0010203E024F0030297
:103C900042EA0C0222F0F0021B01DBB2134326F0D1
:103CA0000A0201F00A0111438361016270BC70478E
:103CB000000001400004004038B590F83C30012B72
:103CC0005AD004460D46012380F83C3052B1042AF4
:103CD0001AD0082A2BD00C2A3BD00120002384F8CC
:103CE0003C3038BDCB684A6809680068FFF7A6FF1A
:103CF0002268936923F00C03936122689369A96891
:103D00000B4393610020E9E7CB684A6809680068C3
:103D1000FFF752FD2268936923F4406393612268A0
:103D20009369A96843EA012393610020D6E7CB6831
:103D30004A6809680068FFF76DFD2268D36923F0BF
:103D40000C03D3612268D369A9680B43D3610020B7
:103D5000C4E7CB684A6809680068FFF776FD226807
:103D6000D36923F44063D3612268D369A96843EA25
:103D70000123D3610020B1E70220B2E710B48468C8
:103D800024F47F4C42EA03220A4342EA0C02826096
:103D900010BC704790F83C30012B78D010B5044629
:103DA000012380F83C30022380F83D30026893689C
:103DB00023F47F4323F0770393600B68602B4CD090
:103DC00029D8402B54D00CD9502B22D1CA6849682D
:103DD0000068FFF7DFFC50212068FFF751FD00204D
:103DE00005E0202B0DD009D9302B0AD0012001236A
:103DF00084F83D30002384F83C3010BD0BB1102B0B
:103E000005D119462068FFF73BFD0020EFE70120B0
:103E1000EDE70120EBE7B3F5805F34D0B3F5005F49
:103E20000CD1CB684A6889680068FFF7A7FF226851
:103E3000936843F4804393600020D8E7702B24D12B
:103E4000CB684A6889680068FFF798FF2268936822
:103E500043F0770393600020C9E7CA6849680068A7
:103E6000FFF7C5FC60212068FFF70AFD0020BEE7D0
:103E7000CA6849680068FFF78DFC40212068FFF799
:103E8000FFFC0020B3E70020B1E70120AFE70220EC
:103E9000704710B50468A26822F070024B681343A3
:103EA00023F007030A681343A3604B68502B32D0FA
:103EB0000BD9602B36D0702B43D10B698A68C96847
:103EC0000068FFF75BFF00200FE0402B0ED001D908
:103ED00001200AE0202B2CD003D9302B2FD1002039
:103EE00003E043B3102B28D1002010BD0B68052B35
:103EF00029D003681C6A1A6A22F001021A62026859
:103F0000936923F0F003096943EA0113936103689D
:103F10001C620020E9E70A6989680068FFF73AFC3B
:103F20000020E2E70A6989680068FFF760FC00206A
:103F3000DBE70020D9E70020D7E70120D5E7012003
:103F4000D3E70120D1E70120CFE790F83C30012BE7
:103F500022D010B50446012380F83C30022380F8BB
:103F60003D30FFF796FF80B92268D36823F0400305
:103F7000D3602268D36823F48043D360012384F89C
:103F80003D30002384F83C3010BD012084F83D0012
:103F9000002384F83C30F7E70220704701F01F014E
:103FA000012303FA01FC036A23EA0C030362036A98
:103FB00002FA01F10B4303627047000010B504469A
:103FC0000B4609BB90F83E00C0B26BBB94F8422090
:103FD000D2B2012840F0A480012A40F0A2809BBB0D
:103FE000022184F83E10002B3ED1022184F84210B9
:103FF0000C2B00F29780DFE803F0479595957695B6
:1040000095957C9595958200042905D0082907D0BF
:1040100090F84100C0B2D8E790F83F00C0B2D4E7B2
:1040200090F84000C0B2D0E7042B05D0082B07D091
:1040300094F84520D2B2CCE794F84320D2B2C8E736
:1040400094F84420D2B2C4E7042B05D0082B07D043
:10405000022184F84110C6E7022184F83F10C2E72C
:10406000022184F84010BEE7042B05D0082B07D0AE
:10407000022184F84510BBE7022184F84310B7E71A
:10408000022184F84410B3E72168CA6842F00202B2
:10409000CA60012219462068FFF780FF2368234A7F
:1040A000934232D0B3F1804F2FD0A2F57C4293429D
:1040B0002BD002F58062934227D002F580629342B2
:1040C00023D002F5784293421FD002F570529342FA
:1040D0001BD0A2F59432934217D01A6842F0010225
:1040E0001A6000201DE02168CA6842F00402CA601C
:1040F000CFE72168CA6842F00802CA60C9E72168B0
:10410000CA6842F01002CA60C3E79A6802F0070268
:10411000062A09D01A6842F001021A60002000E065
:10412000012010BD1046FCE70020FAE70000014026
:1041300090F83C30012B3CD010B4012380F83C3087
:10414000022380F83D3003685A689C6822F0700CA6
:104150000A6842EA0C025A600368174A93421AD06E
:10416000B3F1804F17D0A2F57C42934213D002F5F1
:10417000806293420FD002F5806293420BD002F529
:104180007842934207D002F57052934203D0A2F5D1
:104190009432934204D124F080044A6814439C6012
:1041A000012380F83D30002380F83C30184610BCD5
:1041B00070470220704700BF000001407047704701
:1041C000026802F10C0353E8003F23F490730C32B1
:1041D00042E800310029F3D1026802F1140353E8E8
:1041E000003F23F00103143242E800310029F3D1EB
:1041F000036B012B05D0202380F83E30002303639E
:104200007047026802F10C0353E8003F23F01003EB
:104210000C3242E800310029F3D1ECE790F83D3050
:10422000DBB2212B01D0022070478368B3F5805F99
:1042300017D0036A5A1C02621A7803685A60C38C4A
:104240009BB2013B9BB2C3844BB90268D36823F095
:104250008003D3600268D36843F04003D36000203A
:1042600070470369002BE4D1036A1B880268C3F31B
:1042700008035360036A02330362E0E738B504467B
:104280000268136923F44053C1680B4313618368C8
:104290000269134342691343C2691A430168CB6838
:1042A00023F4164323F00C031343CB6002685369D5
:1042B00023F4407381690B4353610368314A93428D
:1042C00006D002F58062934202D0FFF717FA01E0B0
:1042D000FFF724FAE369B3F5004F29D00021031852
:1042E00049411B1841F10001C90041EA5371DB004B
:1042F000181863684FEA83024FEA937341F1000193
:10430000FCF738FF204DA5FB00325109642303FB65
:1043100011031B013233A5FB03235B0903F0F002F9
:1043200002EB011203F00F03216813448B6038BDC8
:104330000023021843EB0301121841F10001C900E8
:1043400041EA5271D200101841F1000162689218DE
:104350005B41FCF70FFF0C4DA5FB003251096423B4
:1043600003FB1103DB003233A5FB03235B095A0077
:1043700002F4F87202EB011203F007032168134400
:104380008B60D4E7001001401F85EB512DE9F84305
:1043900005460F4616469946DDF820802C682468AD
:1043A00037EA04030CBF4FF0010C4FF0000CB4458A
:1043B0002DD1B8F1FF3FF1D0B8F1000F05D0FDF7D6
:1043C000E9FFA0EB09004045E8D92A6802F10C0397
:1043D00053E8003F23F4D0730C3242E80031002947
:1043E000F3D12A6802F1140353E8003F23F00103DC
:1043F000143242E800310029F3D1202385F83D3002
:1044000085F83E30002385F83C30032000E0002092
:10441000BDE8F88358B310B5044690F83D300BB3AF
:10442000242384F83D302268D36823F40053D360FA
:104430002046FFF723FF2268136923F4904313619A
:104440002268536923F02A0353612268D36843F436
:104450000053D36000202064202384F83D3084F88A
:104460003E3010BD80F83C30FDF79CFED8E70120BF
:1044700070472DE9F04182B01E4690F83D30DBB226
:10448000202B54D104460D469046002953D0002AD3
:1044900053D090F83C30012B51D0012380F83C30B0
:1044A00000230364212380F83D30FDF773FF0746A6
:1044B000A4F82480A4F82680A368B3F5805F05D013
:1044C0004FF00008002384F83C3012E0236913B158
:1044D0004FF00008F6E7A8460025F3E738F8023B5E
:1044E0002268C3F308035360E28C92B2013A92B29D
:1044F000E284E38C9BB273B100963B46002280219C
:104500002046FFF743FFE0B9002DE7D015F8012B57
:1045100023685A60E8E700963B4600224021204687
:10452000FFF734FF78B9202384F83D3000E0022003
:1045300002B0BDE8F0810120FAE70120F8E702208F
:10454000F6E70320F4E70320F2E7704708B50168B7
:10455000CA6822F04002CA60202280F83D20FFF79E
:10456000F4FF002008BD7047704708B5806B00233A
:10457000C385C384FFF7F8FF08BD704790F83E304D
:10458000DBB2222B67D18368B3F5805F4DD0826A9E
:10459000B3F5805F04D0002B54D10369002B51D1B7
:1045A00003685B681370836A01338362C38D9BB2B7
:1045B000013B9BB2C385002B4FD100B583B002688D
:1045C000D36823F02003D3600268D36823F4807398
:1045D000D3600268536923F001035361202380F8FC
:1045E0003E30036B012B33D100230363026802F1D9
:1045F0000C0353E8003F23F010030C3242E8003173
:104600000029F3D103681A6812F0100F06D00022B7
:1046100001921A6801925B680193019B818DFFF7FB
:10462000ACFF002003B05DF804FB0269002AAED1A4
:10463000826A03685B68C3F308031380836A0233EA
:104640008362B3E703685B6803F07F031370AAE734
:10465000FFF789FFE5E70220704700207047000060
:1046600030B583B0044602681368D068516913F00E
:104670000F0505D113F0200F02D010F0200F19D133
:104680002DB111F0010119D110F4907F16D1216BD9
:1046900001297DD013F0800F03D010F0800F40F07F
:1046A000158113F0400F03D010F0400F40F012813D
:1046B00003B030BD2046FFF761FFF9E713F0010FAB
:1046C00006D010F4807F03D0226C42F001022264F5
:1046D00013F0040F04D019B1226C42F002022264DC
:1046E00013F0020F04D019B1226C42F004022264CC
:1046F00013F0080F07D010F0200F00D119B1226C71
:1047000042F008022264226C002AD1D013F0200F5C
:1047100002D010F0200F29D123685B6903F0400319
:10472000226C12F0080F00D163B32046FFF748FD5A
:1047300023685B6913F0400F20D0226802F1140354
:1047400053E8003F23F04003143242E800310029CF
:10475000F3D1A36B73B1614A1A65A06BFEF7AFFA90
:104760000028A5D0A06B036D9847A1E72046FFF76E
:1047700005FFD1E72046FFF7F7FE99E72046FFF750
:10478000F3FE95E72046FFF7EFFE002323648FE753
:1047900013F0100F3FF47EAF10F0100F3FF47AAF1C
:1047A000002301931368019353680193019B53699C
:1047B00013F0400F50D0A26B13685B689BB2002BC4
:1047C0003FF476AFA18D99427FF672AFE385D3694E
:1047D000B3F5807F37D0226802F10C0353E8003F25
:1047E00023F480730C3242E800310029F3D12268AF
:1047F00002F1140353E8003F23F00103143242E8AE
:1048000000310029F3D1226802F1140353E8003F7C
:1048100023F04003143242E800310029F3D1202371
:1048200084F83E3000232363226802F10C0353E82E
:10483000003F23F010030C3242E800310029F3D18D
:10484000A06BFEF7F2F9A18DE38D9BB2C91A89B274
:104850002046FFF792FE2BE7A18DE38D9BB2C91A8C
:1048600089B2E38D9BB2002B3FF422AF00293FF4C5
:104870001FAF226802F10C0353E8003F23F490734A
:104880000C3242E800300028F3D1226802F1140310
:1048900053E8003F23F00103143242E800300028BF
:1048A000F3D1202384F83E3000232363226802F1F1
:1048B0000C0353E8003F23F010030C3242E80030B1
:1048C0000028F3D12046FFF758FEF1E62046FFF717
:1048D000A5FCEDE62046FFF739FEE9E66B4500084A
:1048E00010B40A6850F8223023F0010340F8223057
:1048F0008B68082B24D000244A6822431343CA68DB
:1049000013430A6913434A691343CA6913430A6A82
:1049100013434A6A13438A6A1343CA6A13430A6BEE
:1049200013438A691343CA6B1343096850F8214043
:10493000044A22401A4340F82120002010BC70474E
:104940004024D9E78000F0FF00B5013250F8223052
:1049500003F0404C0B68D1F804E043EA0E13D1F8A1
:1049600008E043EA0E23D1F80CE043EA0E43D1F805
:1049700010E00EF1FF3E43EA0E53D1F814E0AEF121
:10498000020E43EA0E6389690B434CEA030340F8C5
:10499000223000205DF804FBB3F5804F05D06FF0A6
:1049A000704340F822300020704730B450F8223075
:1049B000094C1C400B684D6843EA05138D6843EAB7
:1049C00005238D692B43C96843EA0143234340F81B
:1049D0002230002030BC70470000F0CF82B04FF092
:1049E000D843B3F880309BB2ADF80630BDF806006E
:1049F00080B202B070470246012002E002FB00F0E4
:104A000019464B1EDBB20029F8D1704782B0ADF8D1
:104A10000600BDF806309BB2ADF80630BDF8063092
:104A20009BB24FF0D842A2F8803002B0704782B0FB
:104A3000ADF80600BDF806309BB2ADF80630BDF803
:104A400006309BB24FF0D842A2F87E3002B07047D9
:104A500008B51120FFF7EBFF782003F06AFC362041
:104A6000FFF7E5FF0020FFF7D1FF3A20FFF7DFFF58
:104A70000520FFF7CBFFB220FFF7D9FF0C20FFF78F
:104A8000C5FF0C20FFF7C2FF0020FFF7BFFF332058
:104A9000FFF7BCFF3320FFF7B9FFB720FFF7C7FFD1
:104AA0003520FFF7B3FFBB20FFF7C1FF3220FFF730
:104AB000ADFFC020FFF7BBFF0C20FFF7A7FFC22010
:104AC000FFF7B5FF0120FFF7A1FFC320FFF7AFFFFE
:104AD0001020FFF79BFFC420FFF7A9FF2020FFF75E
:104AE00095FFC620FFF7A3FF0F20FFF78FFFD02011
:104AF000FFF79DFFA420FFF789FFA120FFF786FFA6
:104B0000E020FFF794FFD020FFF780FF0020FFF7A1
:104B10007DFF0220FFF77AFF0720FFF777FF0A20CB
:104B2000FFF774FF2820FFF771FF3220FFF76EFFB9
:104B30004420FFF76BFF4220FFF768FF0620FFF7D6
:104B400065FF0E20FFF762FF1220FFF75FFF1420C2
:104B5000FFF75CFF1720FFF759FFE120FFF767FF22
:104B6000D020FFF753FF0020FFF750FF0220FFF790
:104B70004DFF0720FFF74AFF0A20FFF747FF2820D5
:104B8000FFF744FF3120FFF741FF5420FFF73EFFBE
:104B90004720FFF73BFF0E20FFF738FF1C20FFF7F1
:104BA00035FF1720FFF732FF1B20FFF72FFF1E20D6
:104BB000FFF72CFF2A20FFF73AFF0020FFF726FF20
:104BC0000020FFF723FF0020FFF720FFEF20FFF773
:104BD0001DFF2B20FFF72BFF0020FFF717FF002002
:104BE000FFF714FF0120FFF711FF3F20FFF70EFF33
:104BF0002920FFF71CFF08BD08B5CF20FFF717FFDE
:104C00000020FFF703FFC120FFF700FF3020FFF770
:104C1000FDFEED20FFF70BFF6420FFF7F7FE0320FA
:104C2000FFF7F4FE1220FFF7F1FE8120FFF7EEFE02
:104C3000E820FFF7FCFE8520FFF7E8FE1020FFF7D5
:104C4000E5FE7A20FFF7E2FECB20FFF7F0FE3920E9
:104C5000FFF7DCFE2C20FFF7D9FE0020FFF7D6FE81
:104C60003420FFF7D3FE0220FFF7D0FEF720FFF736
:104C7000DEFE2020FFF7CAFEEA20FFF7D8FE002064
:104C8000FFF7C4FE0020FFF7C1FEC020FFF7CFFEF4
:104C90001B20FFF7BBFEC120FFF7C9FE0120FFF775
:104CA000B5FEC520FFF7C3FE3020FFF7AFFE302072
:104CB000FFF7ACFEC720FFF7BAFEB720FFF7A6FE4E
:104CC0003620FFF7B4FE4820FFF7A0FE3A20FFF79A
:104CD000AEFE5520FFF79AFEB120FFF7A8FE002098
:104CE000FFF794FE1A20FFF791FEB620FFF79FFE14
:104CF0000A20FFF78BFEA220FFF788FEF220FFF7C5
:104D000096FE0020FFF782FE2620FFF790FE01208E
:104D1000FFF77CFEE020FFF78AFE0F20FFF776FE0C
:104D20002A20FFF773FE2820FFF770FE0820FFF708
:104D30006DFE0E20FFF76AFE0820FFF767FE542085
:104D4000FFF764FEA920FFF761FE4320FFF75EFE38
:104D50000A20FFF75BFE0F20FFF758FE0020FFF749
:104D600055FE0020FFF752FE0020FFF74FFE002007
:104D7000FFF74CFEE120FFF75AFE0020FFF746FE4A
:104D80001520FFF743FE1720FFF740FE0720FFF72F
:104D90003DFE1120FFF73AFE0620FFF737FE2B20DD
:104DA000FFF734FE5620FFF731FE3C20FFF72EFEC2
:104DB0000520FFF72BFE1020FFF728FE0F20FFF73E
:104DC00025FE3F20FFF722FE3F20FFF71FFE0F20AA
:104DD000FFF71CFE2B20FFF72AFE0020FFF716FE30
:104DE0000020FFF713FE0120FFF710FE3F20FFF722
:104DF0000DFE2A20FFF71BFE0020FFF707FE002014
:104E0000FFF704FE0020FFF701FEEF20FFF7FEFD95
:104E10001120FFF70CFE782003F08BFA2920FFF712
:104E200006FE08BD08B5ED20FFF701FE0120FFF7E3
:104E3000EDFDFE20FFF7EAFDEE20FFF7F8FDDE2096
:104E4000FFF7E4FD2120FFF7E1FDF120FFF7EFFD83
:104E50000120FFF7DBFDDF20FFF7E9FD1020FFF762
:104E6000D5FDC420FFF7E3FD8F20FFF7CFFDC6205F
:104E7000FFF7DDFD0020FFF7C9FDE220FFF7C6FDCB
:104E8000E220FFF7C3FDE220FFF7C0FDBF20FFF7E0
:104E9000CEFDAA20FFF7BAFDB020FFF7C8FD0D2018
:104EA000FFF7B4FD0020FFF7B1FD0D20FFF7AEFDC9
:104EB0000020FFF7ABFD1120FFF7A8FD0020FFF752
:104EC000A5FD1920FFF7A2FD0020FFF79FFD21207F
:104ED000FFF79CFD0020FFF799FD2D20FFF796FDC1
:104EE0000020FFF793FD3D20FFF790FD0020FFF726
:104EF0008DFD5D20FFF78AFD0020FFF787FD5D2017
:104F0000FFF784FD0020FFF781FDB120FFF78FFD43
:104F10008020FFF77BFD0020FFF778FD8B20FFF757
:104F200075FD0020FFF772FD9620FFF76FFD002052
:104F3000FFF76CFDB220FFF77AFD0020FFF766FD5A
:104F40000020FFF763FD0220FFF760FD0020FFF760
:104F50005DFD0320FFF75AFD0020FFF757FDB3204A
:104F6000FFF765FD0020FFF751FD0020FFF74EFD24
:104F70000020FFF74BFD0020FFF748FD0020FFF762
:104F800045FD0020FFF742FD0020FFF73FFD002018
:104F9000FFF73CFD0020FFF739FD0020FFF736FD4D
:104FA0000020FFF733FD0020FFF730FD0020FFF762
:104FB0002DFD0020FFF72AFD0020FFF727FD002030
:104FC000FFF724FD0020FFF721FD0020FFF71EFD65
:104FD0000020FFF71BFD0020FFF718FD0020FFF762
:104FE00015FD0020FFF712FD0020FFF70FFD002048
:104FF000FFF70CFDB420FFF71AFD8B20FFF706FD2D
:105000000020FFF703FD9620FFF700FD0020FFF7CB
:10501000FDFCA120FFF7FAFC0020FFF7F7FCB5200C
:10502000FFF705FD0220FFF7F1FC0020FFF7EEFC83
:105030000320FFF7EBFC0020FFF7E8FC0420FFF75C
:10504000E5FC0020FFF7E2FCB620FFF7F0FC0020B3
:10505000FFF7DCFC0020FFF7D9FCB720FFF7E7FCE7
:105060000020FFF7D3FC0020FFF7D0FC3F20FFF724
:10507000CDFC0020FFF7CAFC5E20FFF7C7FC002034
:10508000FFF7C4FC6420FFF7C1FC0020FFF7BEFC63
:105090008C20FFF7BBFC0020FFF7B8FCAC20FFF72B
:1050A000B5FC0020FFF7B2FCDC20FFF7AFFC0020CE
:1050B000FFF7ACFC7020FFF7A9FC0020FFF7A6FC6F
:1050C0009020FFF7A3FC0020FFF7A0FCEB20FFF7E8
:1050D0009DFC0020FFF79AFCDC20FFF797FC0020E6
:1050E000FFF794FCB820FFF7A2FC0020FFF78EFC2E
:1050F0000020FFF78BFC0020FFF788FC0020FFF763
:1051000085FC0020FFF782FC0020FFF77FFC0020D9
:10511000FFF77CFC0020FFF779FCBA20FFF787FC43
:105120002420FFF773FC0020FFF770FC0020FFF73E
:105130006DFC0020FFF76AFCC120FFF778FC2020FF
:10514000FFF764FC0020FFF761FC5420FFF75EFCD2
:105150000020FFF75BFCFF20FFF758FC0020FFF763
:1051600055FCC220FFF763FC0A20FFF74FFC00202C
:10517000FFF74CFC0420FFF749FC0020FFF746FC3A
:10518000C320FFF754FC3C20FFF740FC0020FFF752
:105190003DFC3A20FFF73AFC0020FFF737FC3920AE
:1051A000FFF734FC0020FFF731FC3720FFF72EFC1F
:1051B0000020FFF72BFC3C20FFF728FC0020FFF726
:1051C00025FC3620FFF722FC0020FFF71FFC3220D1
:1051D000FFF71CFC0020FFF719FC2F20FFF716FC3F
:1051E0000020FFF713FC2C20FFF710FC0020FFF736
:1051F0000DFC2920FFF70AFC0020FFF707FC262002
:10520000FFF704FC0020FFF701FC2420FFF7FEFB62
:105210000020FFF7FBFB2420FFF7F8FB0020FFF73F
:10522000F5FB2320FFF7F2FB0020FFF7EFFB3C200C
:10523000FFF7ECFB0020FFF7E9FB3620FFF7E6FB6A
:105240000020FFF7E3FB3220FFF7E0FB0020FFF731
:10525000DDFB2F20FFF7DAFB0020FFF7D7FB2C2028
:10526000FFF7D4FB0020FFF7D1FB2920FFF7CEFB8F
:105270000020FFF7CBFB2620FFF7C8FB0020FFF73D
:10528000C5FB2420FFF7C2FB0020FFF7BFFB242053
:10529000FFF7BCFB0020FFF7B9FB2320FFF7B6FBAD
:1052A0000020FFF7B3FBC420FFF7C1FB6220FFF72C
:1052B000ADFB0020FFF7AAFB0520FFF7A7FB0020AE
:1052C000FFF7A4FB8420FFF7A1FB0020FFF79EFB64
:1052D000F020FFF79BFB0020FFF798FB1820FFF75B
:1052E00095FB0020FFF792FBA420FFF78FFB002027
:1052F000FFF78CFB1820FFF789FB0020FFF786FBE8
:105300005020FFF783FB0020FFF780FB0C20FFF706
:105310007DFB0020FFF77AFB1720FFF777FB0020CB
:10532000FFF774FB9520FFF771FB0020FFF76EFB82
:10533000F320FFF76BFB0020FFF768FBE620FFF789
:1053400065FB0020FFF762FBC520FFF770FB3220F2
:10535000FFF75CFB0020FFF759FB4420FFF756FBEB
:105360000020FFF753FB6520FFF750FB0020FFF7FD
:105370004DFB7620FFF74AFB0020FFF747FB882014
:10538000FFF744FB0020FFF741FBC620FFF74FFB70
:105390002020FFF73BFB0020FFF738FB1720FFF72B
:1053A00035FB0020FFF732FB0120FFF72FFB002029
:1053B000FFF72CFBC720FFF73AFB0020FFF726FB87
:1053C0000020FFF723FB0020FFF720FB0020FFF762
:1053D0001DFBC820FFF72BFB0020FFF717FB002069
:1053E000FFF714FB0020FFF711FB0020FFF70EFB77
:1053F000C920FFF71CFB0020FFF708FB0020FFF788
:1054000005FB0020FFF702FB0020FFF7FFFA00205A
:10541000FFF7FCFA0020FFF7F9FA0020FFF7F6FA91
:105420000020FFF7F3FA0020FFF7F0FA0020FFF763
:10543000EDFA0020FFF7EAFA0020FFF7E7FA002074
:10544000FFF7E4FA0020FFF7E1FA0020FFF7DEFAA9
:105450000020FFF7DBFAE020FFF7E9FA1620FFF75C
:10546000D5FA0020FFF7D2FA1C20FFF7CFFA002070
:10547000FFF7CCFA2120FFF7C9FA0020FFF7C6FAA0
:105480003620FFF7C3FA0020FFF7C0FA4620FFF7E7
:10549000BDFA0020FFF7BAFA5220FFF7B7FA002052
:1054A000FFF7B4FA6420FFF7B1FA0020FFF7AEFA75
:1054B0007A20FFF7ABFA0020FFF7A8FA8B20FFF75E
:1054C000A5FA0020FFF7A2FA9920FFF79FFA002023
:1054D000FFF79CFAA820FFF799FA0020FFF796FA49
:1054E000B920FFF793FA0020FFF790FAC420FFF7E6
:1054F0008DFA0020FFF78AFACA20FFF787FA00200A
:10550000FFF784FAD220FFF781FA0020FFF77EFA36
:10551000D920FFF77BFA0020FFF778FAE020FFF7A9
:1055200075FA0020FFF772FAF320FFF76FFA0020F8
:10553000FFF76CFAE120FFF77AFA1620FFF766FA18
:105540000020FFF763FA1C20FFF760FA0020FFF746
:105550005DFA2220FFF75AFA0020FFF757FA3620AB
:10556000FFF754FA0020FFF751FA4520FFF74EFAF3
:105570000020FFF74BFA5220FFF748FA0020FFF710
:1055800045FA6420FFF742FA0020FFF73FFA7A203D
:10559000FFF73CFA0020FFF739FA8B20FFF736FAC5
:1055A0000020FFF733FA9920FFF730FA0020FFF7C9
:1055B0002DFAA820FFF72AFA0020FFF727FAB920D2
:1055C000FFF724FA0020FFF721FAC420FFF71EFAA4
:1055D0000020FFF71BFACA20FFF718FA0020FFF798
:1055E00015FAD220FFF712FA0020FFF70FFAD820A1
:1055F000FFF70CFA0020FFF709FAE020FFF706FAA0
:105600000020FFF703FAF320FFF700FA0020FFF76E
:10561000FDF9E220FFF70BFA0520FFF7F7F900206C
:10562000FFF7F4F90B20FFF7F1F90020FFF7EEF98F
:105630001B20FFF7EBF90020FFF7E8F93420FFF714
:10564000E5F90020FFF7E2F94420FFF7DFF9002039
:10565000FFF7DCF94F20FFF7D9F90020FFF7D6F963
:105660006120FFF7D3F90020FFF7D0F97920FFF789
:10567000CDF90020FFF7CAF98820FFF7C7F900200D
:10568000FFF7C4F99720FFF7C1F90020FFF7BEF933
:10569000A620FFF7BBF90020FFF7B8F9B720FFF706
:1056A000B5F90020FFF7B2F9C220FFF7AFF90020EB
:1056B000FFF7ACF9C720FFF7A9F90020FFF7A6F91B
:1056C000D120FFF7A3F90020FFF7A0F9D620FFF7BC
:1056D0009DF90020FFF79AF9DD20FFF797F90020E8
:1056E000FFF794F9F320FFF791F90020FFF78EF907
:1056F000E320FFF79CF90520FFF788F90020FFF76A
:1057000085F90A20FFF782F90020FFF77FF91C20B6
:10571000FFF77CF90020FFF779F93320FFF776F9DE
:105720000020FFF773F94420FFF770F90020FFF71E
:105730006DF95020FFF76AF90020FFF767F9622042
:10574000FFF764F90020FFF761F97820FFF75EF9B1
:105750000020FFF75BF98820FFF758F90020FFF7DA
:1057600055F99720FFF752F90020FFF74FF9A620CF
:10577000FFF74CF90020FFF749F9B720FFF746F98A
:105780000020FFF743F9C220FFF740F90020FFF7A0
:105790003DF9C720FFF73AF90020FFF737F9D1208C
:1057A000FFF734F90020FFF731F9D520FFF72EF984
:1057B0000020FFF72BF9DD20FFF728F90020FFF785
:1057C00025F9F320FFF722F90020FFF71FF9E42065
:1057D000FFF72DF90120FFF719F90020FFF716F95F
:1057E0000120FFF713F90020FFF710F90220FFF75F
:1057F0000DF90020FFF70AF92A20FFF707F900202A
:10580000FFF704F93C20FFF701F90020FFF7FEF84D
:105810004B20FFF7FBF80020FFF7F8F85D20FFF7BB
:10582000F5F80020FFF7F2F87420FFF7EFF80020FA
:10583000FFF7ECF88420FFF7E9F80020FFF7E6F81F
:105840009320FFF7E3F80020FFF7E0F8A220FFF72E
:10585000DDF80020FFF7DAF8B320FFF7D7F80020D3
:10586000FFF7D4F8BE20FFF7D1F80020FFF7CEF8FD
:10587000C420FFF7CBF80020FFF7C8F8CD20FFF7D2
:10588000C5F80020FFF7C2F8D320FFF7BFF80020CB
:10589000FFF7BCF8DD20FFF7B9F80020FFF7B6F8F6
:1058A000F320FFF7B3F80020FFF7B0F8E520FFF78B
:1058B000BEF80020FFF7AAF80020FFF7A7F80020A5
:1058C000FFF7A4F80020FFF7A1F80220FFF79EF8E9
:1058D0000020FFF79BF82920FFF798F80020FFF73A
:1058E00095F83C20FFF792F80020FFF78FF84B2047
:1058F000FFF78CF80020FFF789F85D20FFF786F8A6
:105900000020FFF783F87420FFF780F80020FFF7EE
:105910007DF88420FFF77AF80020FFF777F89320CE
:10592000FFF774F80020FFF771F8A220FFF76EF878
:105930000020FFF76BF8B320FFF768F80020FFF7AF
:1059400065F8BE20FFF762F80020FFF75FF8C4207B
:10595000FFF75CF80020FFF759F8CD20FFF756F865
:105960000020FFF753F8D320FFF750F80020FFF78F
:105970004DF8DC20FFF74AF80020FFF747F8F32046
:10598000FFF744F80020FFF741F8E620FFF74FF853
:105990001120FFF73BF80020FFF738F83420FFF71D
:1059A00035F80020FFF732F85620FFF72FF80020D7
:1059B000FFF72CF87620FFF729F80020FFF726F8EC
:1059C0007720FFF723F80020FFF720F86620FFF785
:1059D0001DF80020FFF71AF88820FFF717F80020BD
:1059E000FFF714F89920FFF711F80020FFF70EF8E1
:1059F000BB20FFF70BF80020FFF708F89920FFF70E
:105A000005F80020FFF702F86620FEF7FFFF0020F0
:105A1000FEF7FCFF5520FEF7F9FF0020FEF7F6FF2A
:105A20005520FEF7F3FF0020FEF7F0FF4520FEF7BC
:105A3000EDFF0020FEF7EAFF4320FEF7E7FF00201E
:105A4000FEF7E4FF4420FEF7E1FF0020FEF7DEFF53
:105A5000E720FEF7ECFF3220FEF7D8FF0020FEF72C
:105A6000D5FF5520FEF7D2FF0020FEF7CFFF7620AE
:105A7000FEF7CCFF0020FEF7C9FF6620FEF7C6FF49
:105A80000020FEF7C3FF6720FEF7C0FF0020FEF7EF
:105A9000BDFF6720FEF7BAFF0020FEF7B7FF8720A3
:105AA000FEF7B4FF0020FEF7B1FF9920FEF7AEFF2E
:105AB0000020FEF7ABFFBB20FEF7A8FF0020FEF79B
:105AC000A5FF9920FEF7A2FF0020FEF79FFF772099
:105AD000FEF79CFF0020FEF799FF4420FEF796FF9B
:105AE0000020FEF793FF5620FEF790FF0020FEF700
:105AF0008DFF2320FEF78AFF0020FEF787FF33206B
:105B0000FEF784FF0020FEF781FF4520FEF77EFFB1
