:020000040800F2
:1000000000000220F9100008750F0008770F0008A3
:10001000790F00087B0F00087D0F0008000000002A
:100020000000000000000000000000007F0F00083A
:10003000810F000800000000830F0008850F0008F2
:100040004911000849110008491100084911000828
:100050004911000849110008491100084911000818
:100060004911000849110008491100084911000808
:1000700049110008491100084911000849110008F8
:1000800049110008491100084911000849110008E8
:1000900049110008491100084911000849110008D8
:1000A00049110008491100084911000849110008C8
:1000B00049110008491100084911000849110008B8
:1000C00049110008491100084911000849110008A8
:1000D000491100088D0F0008491100084911000856
:1000E0004911000849110008491100084911000888
:1000F0004911000849110008491100084911000878
:100100004911000849110008491100084911000867
:100110004911000849110008491100084911000857
:1001200049110008491100089D0F000849110008F5
:100130004911000849110008491100084911000837
:100140004911000849110008491100084911000827
:100150004911000849110008AD0F000849110008B5
:100160004911000849110008491100084911000807
:100170004911000849110008491100080000000059
:080180004911000849110008B3
:1001880010B5054C237833B9044B13B10448AFF3C9
:1001980000800123237010BD94040020000000009B
:1001A8001860000808B5034B1BB103490348AFF3B7
:1001B800008008BD000000009804002018600008B6
:1001C80070B54FF0FF0C4CF4E06C1CEA11541DBFE5
:1001D8001CEA135594EA0C0F95EA0C0F00F0DEF8B0
:1001E8002C4481EA030621EA4C5123EA4C5350EA95
:1001F800013518BF52EA033541F4801143F48013E6
:1002080038D0A0FB02CE4FF00005E1FB02E506F076
:100218000042E0FB03E54FF00006E1FB03569CF0CB
:10022800000F18BF4EF0010EA4F1FF04B6F5007FD1
:1002380064F5407404D25FEA4E0E6D4146EB060643
:1002480042EAC62141EA55514FEAC52040EA5E50CC
:100258004FEACE2EB4F1FD0C88BFBCF5E06F1ED876
:10026800BEF1004F08BF5FEA500E50F1000041EBAD
:10027800045170BD06F0004646EA010140EA02005A
:1002880081EA0301B4EB5C04C2BFD4EB0C0541EA7C
:10029800045170BD41F480114FF0000E013C00F391
:1002A800AB8014F1360FDEBF002001F0004170BDB5
:1002B800C4F10004203C35DA0C341BDC04F11404CE
:1002C800C4F1200500FA05F320FA04F001FA05F25A
:1002D80040EA020001F0004221F0004110EBD37027
:1002E80021FA04F642EB06015EEA430E08BF20EA53
:1002F800D37070BDC4F10C04C4F1200500FA04F3F6
:1003080020FA05F001FA04F240EA020001F0004187
:1003180010EBD37041F100015EEA430E08BF20EAFA
:10032800D37070BDC4F1200500FA05F24EEA020E42
:1003380020FA04F301FA05F243EA020321FA04F071
:1003480001F0004121FA04F220EA020000EBD37028
:100358005EEA430E08BF20EAD37070BD94F0000F28
:100368000FD101F00046400041EB010111F4801F5C
:1003780008BF013CF7D041EA060195F0000F18BF0D
:10038800704703F00046520043EB030313F4801F49
:1003980008BF013DF7D043EA0603704794EA0C0F03
:1003A8000CEA135518BF95EA0C0F0CD050EA410619
:1003B80018BF52EA4306D1D181EA030101F0004196
:1003C8004FF0000070BD50EA410606BF10461946BE
:1003D80052EA430619D094EA0C0F02D150EA0136CA
:1003E80013D195EA0C0F05D152EA03361CBF10460B
:1003F80019460AD181EA030101F0004141F0FE41AA
:1004080041F470014FF0000070BD41F0FE4141F42D
:10041800780170BD81F0004102E000BF83F0004325
:1004280030B54FEA41044FEA430594EA050F08BF87
:1004380090EA020F1FBF54EA000C55EA020C7FEA4B
:10044800645C7FEA655C00F0E2804FEA5454D4EBC8
:100458005555B8BF6D420CDD2C4480EA020281EA92
:10046800030382EA000083EA010180EA020281EACA
:100478000303362D88BF30BD11F0004F4FEA01311C
:100488004FF4801C4CEA113102D0404261EB41012B
:1004980013F0004F4FEA03334CEA133302D05242B1
:1004A80063EB430394EA050F00F0A780A4F101046D
:1004B800D5F1200E0DDB02FA0EFC22FA05F28018A7
:1004C80041F1000103FA0EF2801843FA05F359418D
:1004D8000EE0A5F120050EF1200E012A03FA0EFC0C
:1004E80028BF4CF0020C43FA05F3C01851EBE37136
:1004F80001F0004507D54FF0000EDCF1000C7EEB53
:1005080000006EEB0101B1F5801F1BD3B1F5001F90
:100518000CD349085FEA30004FEA3C0C04F10104AF
:100528004FEA445212F5800F80F09A80BCF1004FD8
:1005380008BF5FEA500C50F1000041EB045141EA5A
:10054800050130BD5FEA4C0C404141EB0101013C23
:1005580028BFB1F5801FE9D291F0000F04BF014612
:100568000020B1FA81F308BF2033A3F10B03B3F1E4
:1005780020020CDA0C3208DD02F1140CC2F10C0274
:1005880001FA0CF021FA02F10CE002F11402D8BFD2
:10059800C2F1200C01FA02F120FA0CFCDCBF41EA9E
:1005A8000C019040E41AA2BF01EB0451294330BD6D
:1005B8006FEA04041F3C1CDA0C340EDC04F114044A
:1005C800C4F1200220FA04F001FA02F340EA030021
:1005D80021FA04F345EA030130BDC4F10C04C4F167
:1005E800200220FA02F001FA04F340EA0300294647
:1005F80030BD21FA04F0294630BD94F0000F83F491
:10060800801306BF81F480110134013D4EE77FEA73
:10061800645C18BF7FEA655C29D094EA050F08BFBF
:1006280090EA020F05D054EA000C04BF19461046A0
:1006380030BD91EA030F1EBF0021002030BD5FEAE4
:10064800545C05D14000494128BF41F0004130BD0C
:1006580014F580043CBF01F5801130BD01F0004560
:1006680045F0FE4141F470014FF0000030BD7FEAD3
:10067800645C1ABF194610467FEA655C1CBF0B46CE
:10068800024650EA013406BF52EA033591EA030FE5
:1006980041F4002130BD00BF90F0000F04BF0021DD
:1006A800704730B54FF4806404F132044FF0000510
:1006B8004FF0000150E700BF90F0000F04BF002189
:1006C800704730B54FF4806404F1320410F00045EF
:1006D80048BF40424FF000013EE700BF42004FEAEA
:1006E800E2014FEA31014FEA02701FBF12F07F4367
:1006F80093F07F4F81F06051704732F07F4208BF1E
:10070800704793F07F4F04BF41F40021704730B524
:100718004FF4607401F0004521F000411CE700BF70
:1007280050EA010208BF704730B54FF000050AE0F3
:1007380050EA010208BF704730B511F0004502D5F4
:10074800404261EB41014FF4806404F132045FEAF6
:10075800915C3FF4D8AE4FF003025FEADC0C18BF9F
:1007680003325FEADC0C18BF033202EBDC02C2F191
:10077800200300FA03FC20FA02F001FA03FE40EA23
:100788000E0021FA02F11444BDE600BF4A0011D25E
:1007980012F5001211D20DD56FF47873B3EB6252D3
:1007A8000ED44FEAC12343F0004343EA505323FADF
:1007B80002F070474FF00000704750EA013002D154
:1007C8004FF0FF3070474FF00000704753B94AB9F7
:1007D800002908BF00281CBF4FF0FF314FF0FF3041
:1007E80000F074B9ADF1080C6DE904CE00F006F81C
:1007F800DDF804E0DDE9022304B070472DE9F04795
:10080800089E0D4604468846002B4DD18A429446E0
:1008180068D9B2FA82F252B101FA02F3C2F12001A8
:1008280020FA01F10CFA02FC41EA030894404FEA6D
:100838001C45210CB8FBF5FE1FFA8CF705FB1E833F
:1008480041EA03430EFB07F199420BD91CEB030362
:100858000EF1FF3080F01E81994240F21B81AEF10B
:10086800020E63445B1AA4B2B3FBF5F005FB103328
:1008780044EA034400FB07F7A7420AD91CEB040427
:1008880000F1FF3380F00881A74240F205816444FB
:100898000238E41B40EA0E4000211EB1D440002378
:1008A800C6E90043BDE8F0878B4208D9002E00F066
:1008B800EE800021C6E900050846BDE8F087B3FAD6
:1008C80083F100294AD1AB4202D3824200F2F98077
:1008D800841A65EB030301209846002EE2D0C6E98E
:1008E8000048DFE702B9FFDEB2FA82F2002A40F0E0
:1008F8009180A1EB0C054FEA1C471FFA8CFE0121E1
:10090800B5FBF7F307FB1350250C45EA00450EFB32
:1009180003F0A84208D91CEB050503F1FF3802D201
:10092800A84200F2CB8043462D1AA4B2B5FBF7F0DB
:1009380007FB105544EA05440EFB00FEA64508D9FE
:100948001CEB040400F1FF3502D2A64500F2BB807F
:100958002846A4EB0E0440EA03409EE7C1F12007B5
:100968008B4022FA07FC4CEA030C20FA07F405FA3C
:1009780001F31C43FD404FEA1C4900FA01F3B5FBA3
:10098800F9F8200C1FFA8CFE09FB185540EA0545BA
:1009980008FB0EF0A84202FA01F20BD91CEB050580
:1009A80008F1FF3A80F08880A84240F28580A8F1DB
:1009B800020865442D1AA4B2B5FBF9F009FB1055DD
:1009C80044EA054500FB0EFEAE4508D91CEB0505BB
:1009D80000F1FF346CD2AE456AD90238654440EA6A
:1009E8000840A0FB0294A5EB0E05A542C846A64602
:1009F80056D353D05EB1B3EB080265EB0E0505FA8A
:100A080007F722FA01F3CD401F43C6E9007500211C
:100A1800BDE8F087C2F1200320FA03F10CFA02FCCA
:100A280025FA03F395400D434FEA1C471FFA8CFE45
:100A3800B3FBF7F107FB11302B0C43EA004301FB32
:100A48000EF0984204FA02F408D91CEB030301F1F2
:100A5800FF382FD298422DD9023963441B1AADB200
:100A6800B3FBF7F007FB103345EA034500FB0EF331
:100A7800AB4208D91CEB050500F1FF3816D2AB4292
:100A880014D902386544ED1A40EA014138E7314685
:100A9800304607E78646E5E61846FAE64B45A9D20A
:100AA800B9EB020864EB0C0E0138A3E74046EAE70D
:100AB800204694E74146D1E7D0467BE7023B6544B0
:100AC80032E7084609E76444023842E7704700BF46
:100AD80000B585B000230093019302930393154852
:100AE800154A02604FF4803242608360012202613D
:100AF800027680F82030C36210498162C360C26107
:100B080080F83030426100F01DFC68B90923009379
:100B180001230193002302936946064800F040FD33
:100B280028B905B05DF804FB00F094F9EEE700F091
:100B380091F9F6E7B0040020002001400100000F01
:100B480000B589B000230393049305930693079394
:100B5800026803F1804303F590339A4202D009B04A
:100B68005DF804FB0021019103F58C335A6C42F4C3
:100B780080725A645A6C02F480720192019A02914E
:100B88001A6B42F002021A631B6B03F00203029312
:100B9800029B022303930323049303A9014801F052
:100BA80051F8DCE70004024010B582B0002401943B
:100BB8000D4B1A6B42F480021A631B6B03F480031B
:100BC8000193019B224621463A2000F0C7FD3A20B6
:100BD80000F0FCFD22462146462000F0BFFD4620DD
:100BE80000F0F4FD02B010BD003802402DE9F041DC
:100BF80086B0002301930293039304930593224B39
:100C08001B6813B106B0BDE8F0811F4B01221A60C2
:100C1800002600961D4B9A6B42F001029A639B6B6B
:100C280003F001030093009B4FF48058CDF8048033
:100C380002270297032504950C24059401A914485A
:100C480001F000F84FF6807301930297039604951C
:100C5800059401A90F4800F0F5FF4CF23373019396
:100C6800029703960495059401A90B4800F0EAFF42
:100C7800CDF80480029703960495059401A90748C6
:100C880000F0E0FFBEE700BFF80400200038024093
:100C98000014024000100240000C024000180240FC
:100CA80010B58EB000230793089309930A930B930A
:100CB8000C930D930093019302930393049305936C
:100CC80006931A484FF02042026002F58272426091
:100CD80006228260C3600361102242618361C3619E
:100CE800036243624FF480518162C3624FF48041D2
:100CF80001634363836343640F2307930893FF21CE
:100D080009910A930B9211210C91082400940193E4
:100D180009230293049205916A4607A901F0D6FBBC
:100D280008B90EB010BD00F095F8FAE7FC040020F1
:100D380008B5FFF75BFF08BDF0B58FB00024099434
:100D48000A940B940C940D9401943E4B1A6B42F048
:100D580010021A631A6B02F010020192019A0294AF
:100D68001A6B42F004021A631A6B02F00402029230
:100D7800029A03941A6B42F020021A631A6B02F06B
:100D880020020392039A04941A6B42F080021A63B9
:100D98001A6B02F080020492049A05941A6B42F0CE
:100DA80002021A631A6B02F002020592059A06946F
:100DB8001A6B42F008021A631A6B02F008020692D4
:100DC800069A07941A6B42F001021A631A6B02F032
:100DD80001020792079A08941A6B42F040021A63BC
:100DE8001B6B03F040030893089B174F22464FF4F0
:100DF800C061384601F01FF8144E22464FF40041F6
:100E0800304601F018F80C2309930A9401250B9534
:100E180009A90F4800F016FF4FF4C06309930A951B
:100E28000B950C9409A9384600F00CFF4FF40043C9
:100E380009930A950B940C9409A9304600F002FF17
:100E48000FB0F0BD00380240001402400004024018
:100E58000010024072B6FEE700B595B030220021BE
:100E680008A805F013F80023039304930593069349
:100E780007930193204A116C41F080511164126C60
:100E880002F080520192019A02931C4B1A6842F4B4
:100E980080421A601B6803F480430293029B01237B
:100EA80008934FF48033099302220E924FF4800383
:100EB8000F9304231093A82111911292139308A859
:100EC80000F0C8FF98B90F2303930223049300236B
:100ED80005934FF4A05306934FF4805307930521CD
:100EE80003A801F01DFA20B915B05DF804FBFFF75F
:100EF800B1FFFFF7AFFF00BF0038024000700040AD
:100F080008B500F045F9FFF7A7FFFFF715FFFFF752
:100F18004BFEFFF7DDFDFFF7C3FE00F04DF804F0D0
:100F280085FA012004F0DCF904F0E0FD04F068FF24
:100F3800FCE7000082B0002100910B4B5A6C42F490
:100F480080425A645A6C02F480420092009A0191DD
:100F58001A6C42F080521A641B6C03F080530193A0
:100F6800019B02B0704700BF00380240FEE7FEE771
:100F7800FEE7FEE7FEE770477047704708B500F0E8
:100F880021F908BD08B5024801F06CFC08BD00BF96
:100F98000C06002008B5024800F066FD08BD00BF39
:100FA8004C05002008B5024800F05EFD08BD00BFF2
:100FB800AC0500207047000008B50A480A4B0360DA
:100FC8004FF4E133436000238360C36003610C2264
:100FD80042618361C36101F08BFB00B908BDFFF773
:100FE80039FFFBE70C0600200010014030B589B03E
:100FF800002303930493059306930793026803F170
:10100800804303F588339A4201D009B030BD0446C5
:101018000025019503F594335A6C42F010025A6486
:101028005A6C02F010020192019A02951A6B42F072
:1010380001021A631B6B03F001030293029B4FF436
:10104800C0630393022304930323069307230793A0
:1010580003A9224800F0F6FD2148224B03604FF017
:10106800006343608560C5604FF480630361456138
:101078008561C5614FF480330362456200F030FC3E
:1010880028BB174BA3639C631748184B03604FF0AA
:1010980000634360402383600023C3604FF4806291
:1010A800026143618361C3614FF4003202624362AB
:1010B80000F016FC70B90C4B63639C63002203219B
:1010C800252000F04BFB252000F080FB9DE7FFF773
:1010D800C1FED6E7FFF7BEFEEDE700BF0000024005
:1010E8004C05002040640240AC050020B864024072
:1010F800DFF834D00D480E490E4A002302E0D458D8
:10110800C4500433C4188C42F9D30B4A0B4C002347
:1011180001E013600432A242FBD3FFF74BFF04F057
:1011280091FEFFF7EDFE704700000220000000204E
:1011380094040020F48F000894040020900E0020EE
:10114800FEE7000010B504460E4B18784FF47A738A
:10115800B3FBF0F30C4A1068B0FBF3F000F044FB6B
:1011680068B90F2C01D901200AE0002221464FF06E
:10117800FF3000F0F3FA054B1C60002000E001206E
:1011880010BD00BF0400002000000020080000205F
:1011980008B50B4B1A6842F400721A601A6842F4D8
:1011A80080621A601A6842F480721A60032000F0A4
:1011B800C3FA0F20FFF7C6FFFFF7BCFE002008BDEB
:1011C800003C0240034A1168034B1B780B44136030
:1011D800704700BF5006002004000020014B18682B
:1011E800704700BF5006002038B50446FFF7F6FFE9
:1011F8000546B4F1FF3F02D0044B1B781C44FFF7AF
:10120800EDFF401BA042FAD338BD00BF0400002008
:101218004A4B5A6822F440325A605A6841680A4375
:101228005A600268536823F48073536002685368F5
:10123800016943EA012353600268536823F040734D
:1012480053600268536881680B435360026893686F
:1012580023F40063936002689368C1680B4393604A
:10126800826A374B9A4257D00268936823F07063BA
:10127800936002689368816A0B439360026893687D
:1012880023F04053936002689368C16A0B439360EC
:101298000268936823F00203936002689368017EF2
:1012A80043EA4103936090F82030002B3FD0026856
:1012B800536843F4006353600268536823F460433F
:1012C800536001684B68426A013A43EA42334B6013
:1012D8000268D36A23F47003D3620168CB6AC269D7
:1012E800013A43EA0253CB620268936823F400731D
:1012F80093600268936890F8301043EA4123936042
:101308000268936823F48063936002689368416974
:1013180043EA8123936070470268936823F07063FF
:1013280093600268936823F040539360B0E70268C3
:10133800536823F400635360CAE700BF00230140E9
:101348000100000F38B310B50446036C43B1236C99
:1013580013F0100F0BD00120002384F83C3010BD8F
:10136800FFF7EEFB0023636484F83C30EFE7236C5F
:1013780023F4885323F0020343F002032364204636
:10138800FFF746FF00206064236C23F0030343F05B
:1013980001032364E0E701207047000082B00023C6
:1013A800019390F83C30012B00F08980012380F8EC
:1013B8003C3003689A6812F0010F13D19A6842F022
:1013C80001029A60414B1B68414AA2FB03239B0C14
:1013D80003EB4303019302E0019B013B0193019B53
:1013E800002BF9D10268936813F0010F5CD0036CED
:1013F80023F4E06323F0010343F480730364536828
:1014080013F4806F05D0036C23F4405343F48053E6
:101418000364036C13F4805F1BD0436C23F0060352
:101428004364002380F83C306FF022031360294B9B
:101438005B6813F01F0F27D10368274A934211D026
:1014480002F58072934207D0244A934214D00020B8
:1014580033E000234364E4E702F50072526812F0B7
:101468001F0FF1D19A6812F0405F2AD19A6842F0B2
:1014780080429A60002020E002F58072526812F0E3
:10148800100FEFD0002018E00368134A934201D0F0
:10149800002012E09A6812F0405F14D19A6842F076
:1014A80080429A60002008E0036C43F01003036454
:1014B800436C43F001034364002002B070470220EC
:1014C800FBE70020F9E70020F7E700BF0000002055
:1014D80083DE1B430023014000200140002201401D
:1014E80070B504460D4603689A6812F4806F03D0FD
:1014F8009B6813F4807F19D1FFF770FE06462368B6
:101508001A6812F0020F20D1B5F1FF3FF7D0B5B934
:1015180023681B6813F0020FF1D1236C43F0040316
:101528002364002384F83C30032032E0036C43F04A
:1015380020030364002380F83C30012029E0FFF7F2
:101548004DFE801BA842DAD9E2E76FF012021A605A
:10155800236C43F40073236423689A6812F0405F95
:1015680016D1207EB0B9DA6A12F4700F03D09B68E6
:1015780013F4806F0DD1236C23F480732364236CE0
:1015880013F4805F05D1236C43F00103236400E06A
:10159800002070BD0020FCE70368D86C704700008D
:1015A80030B482B00023019390F83C30012B00F056
:1015B800BB80012380F83C300B68092B41D90468B3
:1015C800E2689BB203EB43031E3B4FF0070C0CFA97
:1015D80003F322EA0303E3600468E2680B8803EB81
:1015E80043031E3B8D6805FA03F31343E3604B681E
:1015F800062B3DD80468626B03EB8303053B4FF071
:101608001F0C0CFA03F322EA030363630468626B9A
:101618004B6803EB8303053BB1F800C00CFA03F3F6
:10162800134363630268414B9A4251D002683F4BAF
:101638009A4256D0002380F83C30184602B030BC9D
:101648007047046822699BB203EB43034FF0070C11
:101658000CFA03F322EA03032361046822690B8866
:1016680003EB43038D6805FA03F313432361BEE7D5
:101678000C2B16D805682A6B03EB8303233B1F2426
:1016880004FA03F322EA03032B6305682A6B4B6809
:1016980003EB8303233B0C8804FA03F313432B6304
:1016A800C0E70568EA6A03EB8303413B1F2404FA99
:1016B80003F322EA0303EB620568EA6A4B6803EB6B
:1016C8008303413B0C8804FA03F31343EB62A9E755
:1016D8000B68122BAAD1164A536843F4800353604F
:1016E800A4E70B68103B012BA4D8114A536843F4B4
:1016F800000353600B68102B9CD10E4B1B6802F142
:10170800467202F52E3202F28332A2FB03239B0CAF
:1017180003EB83035B00019302E0019B013B019310
:10172800019B002BF9D185E7022087E700200140C3
:101738000023014000000020074AD36823F4E06337
:101748001B041B0C000200F4E060034343F0BF637A
:1017580043F40033D360704700ED00E000B5194B47
:10176800DB68C3F30223C3F1070CBCF1040F28BFE5
:101778004FF0040C03F1040EBEF1060F18D9033B19
:101788004FF0FF3E0EFA0CFC21EA0C0199400EFACC
:1017980003F322EA0303194300280BDB0901C9B24A
:1017A80000F1604000F5614080F800135DF804FB2B
:1017B8000023E5E700F00F000901C9B2024B1954F4
:1017C800F4E700BF00ED00E014ED00E0002807DBBF
:1017D80000F01F02400901239340024A42F82030DA
:1017E800704700BF00E100E00138B0F1807F0BD204
:1017F8004FF0E0235861054AF02182F823100020B9
:10180800986107221A6170470120704700ED00E0D7
:1018180010B40368D9B210390B4AA2FB014212096D
:101828000A4CA25CC2655F2908D923F47F7323F0B0
:10183800030304338365806D10BC704723F47F7302
:1018480023F003038365F6E7ABAAAAAA4860000859
:10185800836A826992B9012B0AD0022B02D00BB19C
:1018680000207047C36A13F0807F28D1002070479A
:10187800C36AB3F1C07F24D000207047B2F5005F7F
:1018880009D0022B25D9032B25D1C36A13F0807FF9
:1018980023D100207047032B03D8DFE803F014049A
:1018A800140A00207047C36A13F0807F0DD100200E
:1018B8007047C36AB3F1C07F09D000207047012088
:1018C80070470120704701207047012070470120B0
:1018D80070470120704700207047012070470000C2
:1018E80070B50446FFF77AFC002C5BD0054602234E
:1018F80084F83530002384F834302268136823F0E4
:101908000103136023681A6812F0010F0AD0FFF769
:1019180065FC431B052BF5D920236365032084F858
:10192800350070BD1A68204810406168A2680A43F3
:10193800E1680A4321690A4361690A43A1690A43C4
:10194800E1690A43216A0A430243616A04291ED0F5
:101958001A602668756925F00705636A1D43042B1C
:1019680007D1A36A1D43E36A1BB12046FFF770FF46
:1019780090B975612046FFF74BFFE26D3F23934016
:10198800836000206065012384F83530C9E7E16A87
:10199800206B01430A43DBE740236365012084F899
:1019A8003500BEE70120BCE73F8010F070B5044663
:1019B800866DFFF713FC94F83530DBB2022B06D0A6
:1019C80080236365002384F83430012070BD054608
:1019D8002268136823F0160313602268536923F002
:1019E80080035361236CE3B12268136823F0080372
:1019F80013602268136823F00103136023681B68CF
:101A080013F0010F11D0FFF7E9FB431B052BF5D9A4
:101A180020236365032084F83500002384F83430DC
:101A2800D4E7A36C002BDFD1E3E7E26D3F239340BB
:101A3800B360012384F83530002084F83400C5E70A
:101A480090F83530DBB2022B03D0802343650120A8
:101A58007047052380F835300268136823F00103C6
:101A68001360002070470000F0B583B004460023DF
:101A78000193724B1D68724BA3FB0535AD0A876D48
:101A88003E68C26D08239340334210D003681A6839
:101A980012F0040F0BD01A6822F004021A60C26D0B
:101AA80008239340BB60436D43F001034365E26D37
:101AB80001239340334209D02268526912F0800F03
:101AC80004D0BB60636D43F002036365E26D0423D9
:101AD8009340334209D02268126812F0020F04D0F2
:101AE800BB60636D43F004036365E26D10239340AC
:101AF800334224D02268126812F0080F1FD0BB604E
:101B080023681A6812F4802F0DD01B6813F4002F75
:101B180004D1236C9BB12046984710E0A36C73B1A5
:101B2800204698470BE01A6812F4807F03D11A68A0
:101B380022F008021A60236C0BB120469847E26D28
:101B480020239340334255D02268126812F0100FB8
:101B580050D0BB6094F83530DBB2052B0ED023682B
:101B68001A6812F4802F33D01B6813F4002F2AD17F
:101B7800636C002B3ED0204698473BE022681368F0
:101B880023F0160313602268536923F0800353611E
:101B9800236CA3B12268136823F008031360E26D75
:101BA8003F239340BB60012384F83530002384F839
:101BB8003430236D002B3FD0204698473CE0A36C7F
:101BC800002BE7D1EBE7E36BA3B12046984711E080
:101BD8001A6812F4807F09D11A6822F010021A607C
:101BE800012384F83530002384F83430E36B0BB1DB
:101BF80020469847636DFBB1636D13F0010F17D052
:101C0800052384F835302268136823F00103136034
:101C1800019B01330193AB4204D823681B6813F07E
:101C2800010FF5D1012384F83530002384F83430CE
:101C3800E36C0BB12046984703B0F0BD00000020CC
:101C4800B5814E1B00230F2B00F2E48070B582B0E3
:101C580060E085685E000324B44025EA0405CC688A
:101C6800B4402C438460456825EA02054C68C4F3F7
:101C780000129A402A4342605AE0DC08083450F8BF
:101C8800246003F0070295000F22AA4026EA020EFC
:101C98000A69AA4042EA0E0240F824205CE00722C2
:101CA80000E0002202FA0EF22A4302345A4D45F8A7
:101CB80024205A4A94686FEA0C0224EA0C054E68FC
:101CC80016F4801F01D04CEA0405544CA560E46862
:101CD80002EA04054E6816F4001F01D04CEA040518
:101CE8004E4CE560646802EA04054E6816F4003F4D
:101CF80001D04CEA0405494C6560246822404D68CF
:101D080015F4803F01D04CEA0402444C22600133B0
:101D18000F2B7DD801229A400C6804EA020C32EAA3
:101D28000404F4D14C6804F00304013C012C90D95C
:101D38004A6802F00302032A09D0C4685D0003223E
:101D4800AA4024EA02048A68AA402243C2604A6878
:101D580002F00302022A90D004684FEA430E0322DD
:101D680002FA0EF224EA02044A6802F0030202FAB6
:101D78000EF2224302604A6812F4403FC7D00022A4
:101D88000192274A546C44F480445464526C02F41F
:101D980080420192019A9C08A51C1F4A52F82550BE
:101DA80003F003024FEA820E0F2202FA0EF225EA2E
:101DB80002051C4A90423FF474AF02F580629042DB
:101DC8001AD002F58062904218D002F580629042E3
:101DD80016D002F58062904214D002F580629042DB
:101DE80012D002F58062904210D002F580629042D3
:101DF8003FF455AF082255E7012253E7022251E785
:101E080003224FE704224DE705224BE7062249E764
:101E180002B070BD704700BF00380140003C01406F
:101E280000380240000002400369194201D0012035
:101E38007047002070470AB18161704709048161C9
:101E48007047436901EA030221EA030141EA0241BA
:101E580081617047002800F0E08170B582B00446C7
:101E6800036813F0010F3BD09F4B9B6803F00C03F2
:101E7800042B2CD09C4B9B6803F00C03082B21D01F
:101E88006368B3F5803F4FD0B3F5A02F52D0964B7F
:101E98001A6822F480321A601A6822F480221A60C2
:101EA8006368002B50D0FFF799F905468E4B1B68E5
:101EB80013F4003F14D1FFF791F9401B6428F5D9BA
:101EC8000320B1E1884B5B6813F4800FD8D0864BB0
:101ED8001B6813F4003F03D06368002B00F09F8158
:101EE800236813F0020F54D07F4B9B6813F00C0F3C
:101EF8003ED07D4B9B6803F00C03082B33D0E3687E
:101F0800002B68D0794B01221A60FFF767F9054664
:101F1800754B1B6813F0020F54D1FFF75FF9401B94
:101F28000228F5D903207FE16F4A136843F4803310
:101F38001360B5E76C4B1A6842F480221A601A687D
:101F480042F480321A60ABE7FFF748F90546664B62
:101F58001B6813F4003FC3D0FFF740F9401B642807
:101F6800F5D9032060E1604B5B6813F4800FC6D19C
:101F78005D4B1B6813F0020F03D0E368012B40F0A0
:101F88005081594A136823F0F803216943EAC103D1
:101F98001360236813F0080F42D063696BB3534B87
:101FA8000122C3F8802EFFF719F905464E4B5B6FE7
:101FB80013F0020F34D1FFF711F9401B0228F5D9AD
:101FC800032031E1484A136823F0F803216943EA02
:101FD800C1031360DDE7454B00221A60FFF7FEF8E6
:101FE8000546414B1B6813F0020FD2D0FFF7F6F8F5
:101FF800401B0228F5D9032016E13C4B0022C3F808
:10200800802EFFF7EBF80546374B5B6F13F0020F96
:1020180006D0FFF7E3F8401B0228F5D9032003E1B7
:10202800236813F0040F77D02F4B1B6C13F0805FDD
:1020380033D1002301932C4B1A6C42F080521A645E
:102048001B6C03F080530193019B0125284B1B68EF
:1020580013F4807F23D0A368012B34D0052B38D00C
:10206800214B1A6F22F001021A671A6F22F004023C
:102078001A67A368002B3DD0FFF7B0F806461A4B45
:102088001B6F13F0020F46D1FFF7A8F8801B41F22F
:1020980088339842F3D90320C6E00025D6E7144ACE
:1020A800136843F480731360FFF798F80646104BE3
:1020B8001B6813F4807FCED1FFF790F8801B0228AD
:1020C800F5D90320B0E0084A136F43F00103136702
:1020D800CFE7054B1A6F42F004021A671A6F42F0F5
:1020E80001021A67C5E700BF0038024000004742F6
:1020F80000700040FFF772F80646524B1B6F13F052
:10210800020F08D0FFF76AF8801B41F28833984223
:10211800F3D9032088E0EDB9A369002B00F0838090
:10212800484A926802F00C02082A51D0022B17D0B4
:10213800454B00221A66FFF751F80446414B1B68CD
:1021480013F0007F42D0FFF749F8001B0228F5D9A9
:10215800032069E03B4A136C23F080531364DBE7E8
:10216800394B00221A66FFF739F80546354B1B68CC
:1021780013F0007F06D0FFF731F8401B0228F5D98D
:10218800032051E0E369226A1343626A43EA821337
:10219800A26A5208013A43EA0243E26A43EA026346
:1021A800284A5360284B01221A66FFF717F804469D
:1021B800244B1B6813F0007F06D1FFF70FF8001BB4
:1021C8000228F5D903202FE000202DE000202BE085
:1021D800012B2BD01B4B5B6803F48001E269914211
:1021E80026D103F03F02216A8A4223D1616A47F669
:1021F800C0721A40B2EB811F1ED103F44031A26AAB
:102208005208013AB1EB024F18D103F07063E26A49
:10221800B3EB026F14D1002006E0012070470120C3
:1022280002E0012000E0002002B070BD0120FBE7C1
:102238000120F9E70120F7E70120F5E70120F3E79E
:102248000120F1E7003802400000474208B5314B51
:102258009B6803F00C03042B57D0082B57D12D4B48
:102268005A6802F03F025B6813F4800F2AD0294BAA
:102278005968C1F3881C4FEA4C11B1EB0C006EEBA6
:102288000E0E4FEA8E1343EA90638101091A63EB3D
:102298000E03DB0043EA5173C90011EB0C0C43F148
:1022A8000003590200234FEA4C2041EADC51FEF7B3
:1022B8008DFA184B5B68C3F3014301335B00B0FB35
:1022C800F3F025E0134B5968C1F3881C4FEA4C1111
:1022D800B1EB0C006EEB0E0E4FEA8E1343EA9063DF
:1022E8008101091A63EB0E03DB0043EA5173C9004D
:1022F80011EB0C0C43F10003990200234FEA8C20E8
:1023080041EA9C51FEF762FAD3E7034800E003482C
:1023180008BD00BF0038024000127A000024F40013
:10232800002800F09B8070B50D4604464F4B1B6893
:1023380003F007038B4208D2CBB24C4A13701368E0
:1023480003F007038B4240F08B80236813F0020FE1
:1023580017D013F0040F04D0454A936843F4E053B0
:102368009360236813F0080F04D0414A936843F43C
:10237800604393603E4A936823F0F003A1680B43DF
:102388009360236813F0010F32D06368012B21D0CA
:102398009A1E012A25D9364A126812F0020F61D016
:1023A80033498A6822F0030213438B60FEF716FF55
:1023B80006462F4B9B6803F00C036268B3EB820F51
:1023C80016D0FEF70BFF801B41F288339842F0D9F4
:1023D800032042E0264A126812F4003FE0D10120AF
:1023E8003BE0234A126812F0007FD9D1012034E083
:1023F8001E4B1B6803F00703AB4207D9EAB21B4B1D
:102408001A701B6803F00703AB422DD1236813F041
:10241800040F06D0164A936823F4E053E1680B438F
:102428009360236813F0080F07D0114A936823F4C8
:102438006043216943EAC1039360FFF707FF0C4B30
:102448009B68C3F303130B4AD35CD8400A4B18604C
:102458000A4B1868FEF776FE002070BD0120704711
:102468000120FAE70120F8E70120F6E7003C0240E6
:1024780000380240306000080000002008000020FA
:10248800014B1868704700BF0000002008B5FFF72F
:10249800F7FF044B9B68C3F38223034AD35CD840FD
:1024A80008BD00BF003802404060000808B5FFF7CB
:1024B800E7FF044B9B68C3F34233034AD35CD8401D
:1024C80008BD00BF003802404060000840B370B546
:1024D8000E461546044690F84930E3B1214651F8B6
:1024E800080B00F0FFFAA2683146206800F02EFBC6
:1024F800236BA2682946606800F050FB2268A16837
:1025080052F8213043F0010342F82130012384F8C6
:102518004930002070BD80F84830FEF709FCDDE73F
:1025280001207047026802F10C0353E8003F23F4CE
:1025380090730C3242E800310029F3D1026802F1AD
:10254800140353E8003F23F00103143242E800313A
:102558000029F3D1036B012B05D0202380F83E30EE
:10256800002303637047026802F10C0353E8003F3D
:1025780023F010030C3242E800310029F3D1ECE7D4
:1025880090F83D30DBB2212B01D0022070478368E0
:10259800B3F5805F17D0036A5A1C02621A78036881
:1025A8005A60C38C9BB2013B9BB2C3844BB902688F
:1025B800D36823F08003D3600268D36843F04003F4
:1025C800D360002070470369002BE4D1036A1B889D
:1025D8000268C3F308035360036A02330362E0E747
:1025E80038B504460268136923F44053C1680B43A5
:1025F800136183680269134342691343C2691A432A
:102608000168CB6823F4164323F00C031343CB6013
:102618000268536923F4407381690B43536103686B
:10262800314A934206D002F58062934202D0FFF706
:102638002DFF01E0FFF73AFFE369B3F5004F29D01A
:102648000021031849411B1841F10001C90041EA62
:102658005371DB00181863684FEA83024FEA9373DB
:1026680041F10001FEF7B2F8204DA5FB00325109F7
:10267800642303FB11031B013233A5FB03235B090E
:1026880003F0F00202EB011203F00F032168134478
:102698008B6038BD0023021843EB0301121841F187
:1026A8000001C90041EA5271D200101841F100013D
:1026B800626892185B41FEF789F80C4DA5FB003261
:1026C8005109642303FB1103DB003233A5FB032309
:1026D8005B095A0002F4F87202EB011203F00703D7
:1026E800216813448B60D4E7001001401F85EB512B
:1026F80058B310B5044690F83D300BB3242384F842
:102708003D302268D36823F40053D3602046FFF796
:1027180067FF2268136923F49043136122685369A1
:1027280023F02A0353612268D36843F40053D3602B
:1027380000202064202384F83D3084F83E3010BD0A
:1027480080F83C30FEF752FCD8E70120704770470C
:1027580008B50168CA6822F04002CA60202280F8E1
:102768003D20FFF7F4FF002008BD7047704708B50B
:10277800806B0023C385C384FFF7F8FF08BD70474B
:1027880090F83E30DBB2222B67D18368B3F5805FC7
:102798004DD0826AB3F5805F04D0002B54D1036911
:1027A800002B51D103685B681370836A013383621D
:1027B800C38D9BB2013B9BB2C385002B4FD100B5A3
:1027C80083B00268D36823F02003D3600268D3681B
:1027D80023F48073D3600268536923F001035361C3
:1027E800202380F83E30036B012B33D10023036391
:1027F800026802F10C0353E8003F23F010030C3287
:1028080042E800310029F3D103681A6812F0100F6A
:1028180006D0002201921A6801925B680193019B1D
:10282800818DFFF7ACFF002003B05DF804FB02695F
:10283800002AAED1826A03685B68C3F30803138079
:10284800836A02338362B3E703685B6803F07F033C
:102858001370AAE7FFF789FFE5E702207047002019
:102868007047000030B583B0044602681368D0682A
:10287800516913F00F0505D113F0200F02D010F0A5
:10288800200F19D12DB111F0010119D110F4907F49
:1028980016D1216B01297DD013F0800F03D010F0E1
:1028A800800F40F0158113F0400F03D010F0400F57
:1028B80040F0128103B030BD2046FFF761FFF9E711
:1028C80013F0010F06D010F4807F03D0226C42F081
:1028D8000102226413F0040F04D019B1226C42F0F3
:1028E8000202226413F0020F04D019B1226C42F0E4
:1028F8000402226413F0080F07D010F0200F00D153
:1029080019B1226C42F008022264226C002AD1D04C
:1029180013F0200F02D010F0200F29D123685B6933
:1029280003F04003226C12F0080F00D163B3204675
:10293800FFF7F8FD23685B6913F0400F20D0226889
:1029480002F1140353E8003F23F04003143242E835
:1029580000310029F3D1A36B73B1614A1A65A06BEA
:10296800FFF76EF80028A5D0A06B036D9847A1E784
:102978002046FFF705FFD1E72046FFF7F7FE99E766
:102988002046FFF7F3FE95E72046FFF7EFFE00230A
:1029980023648FE713F0100F3FF47EAF10F0100F91
:1029A8003FF47AAF002301931368019353680193AE
:1029B800019B536913F0400F50D0A26B13685B68FA
:1029C8009BB2002B3FF476AFA18D99427FF672AF90
:1029D800E385D369B3F5807F37D0226802F10C0311
:1029E80053E8003F23F480730C3242E80031002999
:1029F800F3D1226802F1140353E8003F23F00103E6
:102A0800143242E800310029F3D1226802F114039C
:102A180053E8003F23F04003143242E80031002914
:102A2800F3D1202384F83E3000232363226802F187
:102A38000C0353E8003F23F010030C3242E8003146
:102A48000029F3D1A06BFEF7B1FFA18DE38D9BB2F6
:102A5800C91A89B22046FFF792FE2BE7A18DE38DB4
:102A68009BB2C91A89B2E38D9BB2002B3FF422AF07
:102A780000293FF41FAF226802F10C0353E8003F1E
:102A880023F490730C3242E800300028F3D1226816
:102A980002F1140353E8003F23F00103143242E823
:102AA80000300028F3D1202384F83E30002323632C
:102AB800226802F10C0353E8003F23F010030C32A4
:102AC80042E800300028F3D12046FFF758FEF1E62F
:102AD8002046FFF755FDEDE62046FFF739FEE9E60B
:102AE8007727000810B40A6850F8223023F0010351
:102AF80040F822308B68082B24D000244A682243EF
:102B08001343CA6813430A6913434A691343CA69DA
:102B180013430A6A13434A6A13438A6A1343CA6A05
:102B280013430A6B13438A691343CA6B1343096837
:102B380050F82140044A22401A4340F8212000203E
:102B480010BC70474024D9E78000F0FF00B501327F
:102B580050F8223003F0404C0B68D1F804E043EA07
:102B68000E13D1F808E043EA0E23D1F80CE043EA4B
:102B78000E43D1F810E00EF1FF3E43EA0E53D1F8B0
:102B880014E0AEF1020E43EA0E6389690B434CEA86
:102B9800030340F8223000205DF804FBB3F5804FB2
:102BA80005D06FF0704340F822300020704730B4F1
:102BB80050F82230094C1C400B684D6843EA051355
:102BC8008D6843EA05238D692B43C96843EA0143AD
:102BD800234340F82230002030BC70470000F0CF7B
:102BE80082B04FF0D843B3F880309BB2ADF80630CE
:102BF800BDF8060080B202B0704782B0ADF806009A
:102C0800BDF806309BB2ADF80630BDF806309BB271
:102C18004FF0D842A2F8803002B0704782B0ADF8C9
:102C28000600BDF806309BB2ADF80630BDF8063098
:102C38009BB24FF0D842A2F87E3002B0704708B578
:102C48001120FFF7EBFF782003F058F83620FFF744
:102C5800E5FF0020FFF7D1FF3A20FFF7DFFF05204F
:102C6800FFF7CBFFB220FFF7D9FF0C20FFF7C5FF16
:102C78000C20FFF7C2FF0020FFF7BFFF3320FFF74C
:102C8800BCFF3320FFF7B9FFB720FFF7C7FF352098
:102C9800FFF7B3FFBB20FFF7C1FF3220FFF7ADFFFF
:102CA800C020FFF7BBFF0C20FFF7A7FFC220FFF7EC
:102CB800B5FF0120FFF7A1FFC320FFF7AFFF1020EA
:102CC800FFF79BFFC420FFF7A9FF2020FFF795FF20
:102CD800C620FFF7A3FF0F20FFF78FFFD020FFF7D5
:102CE8009DFFA420FFF789FFA120FFF786FFE020C2
:102CF800FFF794FFD020FFF780FF0020FFF77DFF4C
:102D08000220FFF77AFF0720FFF777FF0A20FFF777
:102D180074FF2820FFF771FF3220FFF76EFF442071
:102D2800FFF76BFF4220FFF768FF0620FFF765FFFC
:102D38000E20FFF762FF1220FFF75FFF1420FFF756
:102D48005CFF1720FFF759FFE120FFF767FFD0204E
:102D5800FFF753FF0020FFF750FF0220FFF74DFF5A
:102D68000720FFF74AFF0A20FFF747FF2820FFF751
:102D780044FF3120FFF741FF5420FFF73EFF472073
:102D8800FFF73BFF0E20FFF738FF1C20FFF735FF4A
:102D98001720FFF732FF1B20FFF72FFF1E20FFF73A
:102DA8002CFF2A20FFF73AFF0020FFF726FF00201C
:102DB800FFF723FF0020FFF720FFEF20FFF71DFF9D
:102DC8002B20FFF72BFF0020FFF717FF0020FFF74E
:102DD80014FF0120FFF711FF3F20FFF70EFF292006
:102DE800FFF71CFF08BD08B5CF20FFF717FF00202D
:102DF800FFF703FFC120FFF700FF3020FFF7FDFEBC
:102E0800ED20FFF70BFF6420FFF7F7FE0320FFF725
:102E1800F4FE1220FFF7F1FE8120FFF7EEFEE82016
:102E2800FFF7FCFE8520FFF7E8FE1020FFF7E5FE20
:102E38007A20FFF7E2FECB20FFF7F0FE3920FFF7FC
:102E4800DCFE2C20FFF7D9FE0020FFF7D6FE342049
:102E5800FFF7D3FE0220FFF7D0FEF720FFF7DEFED4
:102E68002020FFF7CAFEEA20FFF7D8FE0020FFF770
:102E7800C4FE0020FFF7C1FEC020FFF7CFFE1B20D5
:102E8800FFF7BBFEC120FFF7C9FE0120FFF7B5FE23
:102E9800C520FFF7C3FE3020FFF7AFFE3020FFF755
:102EA800ACFEC720FFF7BAFEB720FFF7A6FE362014
:102EB800FFF7B4FE4820FFF7A0FE3A20FFF7AEFE6A
:102EC8005520FFF79AFEB120FFF7A8FE0020FFF774
:102ED80094FE1A20FFF791FEB620FFF79FFE0A2006
:102EE800FFF78BFEA220FFF788FEF220FFF796FE81
:102EF8000020FFF782FE2620FFF790FE0120FFF753
:102F08007CFEE020FFF78AFE0F20FFF776FE2A20DE
:102F1800FFF773FE2820FFF770FE0820FFF76DFE0D
:102F28000E20FFF76AFE0820FFF767FE5420FFF720
:102F380064FEA920FFF761FE4320FFF75EFE0A202A
:102F4800FFF75BFE0F20FFF758FE0020FFF755FE46
:102F58000020FFF752FE0020FFF74FFE0020FFF78A
:102F68004CFEE120FFF75AFE0020FFF746FE152031
:102F7800FFF743FE1720FFF740FE0720FFF73DFE4F
:102F88001120FFF73AFE0620FFF737FE2B20FFF748
:102F980034FE5620FFF731FE3C20FFF72EFE0520B9
:102FA800FFF72BFE1020FFF728FE0F20FFF725FE66
:102FB8003F20FFF722FE3F20FFF71FFE0F20FFF7FD
:102FC8001CFE2B20FFF72AFE0020FFF716FE00202C
:102FD800FFF713FE0120FFF710FE3F20FFF70DFE5D
:102FE8002A20FFF71BFE0020FFF707FE0020FFF74F
:102FF80004FE0020FFF701FEEF20FFF7FEFD112081
:10300800FFF70CFE782002F079FE2920FFF706FE74
:1030180008BD08B5ED20FFF701FE0120FFF7EDFD23
:10302800FE20FFF7EAFDEE20FFF7F8FDDE20FFF7B0
:10303800E4FD2120FFF7E1FDF120FFF7EFFD01207E
:10304800FFF7DBFDDF20FFF7E9FD1020FFF7D5FDD7
:10305800C420FFF7E3FD8F20FFF7CFFDC620FFF761
:10306800DDFD0020FFF7C9FDE220FFF7C6FDE220E5
:10307800FFF7C3FDE220FFF7C0FDBF20FFF7CEFD3D
:10308800AA20FFF7BAFDB020FFF7C8FD0D20FFF713
:10309800B4FD0020FFF7B1FD0D20FFF7AEFD0020C5
:1030A800FFF7ABFD1120FFF7A8FD0020FFF7A5FDF6
:1030B8001920FFF7A2FD0020FFF79FFD2120FFF751
:1030C8009CFD0020FFF799FD2D20FFF796FD0020BD
:1030D800FFF793FD3D20FFF790FD0020FFF78DFDE2
:1030E8005D20FFF78AFD0020FFF787FD5D20FFF7D1
:1030F80084FD0020FFF781FDB120FFF78FFD8020C0
:10310800FFF77BFD0020FFF778FD8B20FFF775FDAB
:103118000020FFF772FD9620FFF76FFD0020FFF7F4
:103128006CFDB220FFF77AFD0020FFF766FD002056
:10313800FFF763FD0220FFF760FD0020FFF75DFD4C
:103148000320FFF75AFD0020FFF757FDB320FFF7D4
:1031580065FD0020FFF751FD0020FFF74EFD002020
:10316800FFF74BFD0020FFF748FD0020FFF745FD66
:103178000020FFF742FD0020FFF73FFD0020FFF78A
:103188003CFD0020FFF739FD0020FFF736FD002049
:10319800FFF733FD0020FFF730FD0020FFF72DFD7E
:1031A8000020FFF72AFD0020FFF727FD0020FFF78A
:1031B80024FD0020FFF721FD0020FFF71EFD002061
:1031C800FFF71BFD0020FFF718FD0020FFF715FD96
:1031D8000020FFF712FD0020FFF70FFD0020FFF78A
:1031E8000CFDB420FFF71AFD8B20FFF706FD002029
:1031F800FFF703FD9620FFF700FD0020FFF7FDFC19
:10320800A120FFF7FAFC0020FFF7F7FCB520FFF735
:1032180005FD0220FFF7F1FC0020FFF7EEFC03207C
:10322800FFF7EBFC0020FFF7E8FC0420FFF7E5FCC4
:103238000020FFF7E2FCB620FFF7F0FC0020FFF7C4
:10324800DCFC0020FFF7D9FCB720FFF7E7FC0020E3
:10325800FFF7D3FC0020FFF7D0FC3F20FFF7CDFCA1
:103268000020FFF7CAFC5E20FFF7C7FC0020FFF72D
:10327800C4FC6420FFF7C1FC0020FFF7BEFC8C20D3
:10328800FFF7BBFC0020FFF7B8FCAC20FFF7B5FC4C
:103298000020FFF7B2FCDC20FFF7AFFC0020FFF7AF
:1032A800ACFC7020FFF7A9FC0020FFF7A6FC9020DB
:1032B800FFF7A3FC0020FFF7A0FCEB20FFF79DFC25
:1032C8000020FFF79AFCDC20FFF797FC0020FFF7AF
:1032D80094FCB820FFF7A2FC0020FFF78EFC00202A
:1032E800FFF78BFC0020FFF788FC0020FFF785FC28
:1032F8000020FFF782FC0020FFF77FFC0020FFF78B
:103308007CFC0020FFF779FCBA20FFF787FC24201B
:10331800FFF773FC0020FFF770FC0020FFF76DFC3F
:103328000020FFF76AFCC120FFF778FC2020FFF798
:1033380064FC0020FFF761FC5420FFF75EFC0020CE
:10334800FFF75BFCFF20FFF758FC0020FFF755FC58
:10335800C220FFF763FC0A20FFF74FFC0020FFF7AD
:103368004CFC0420FFF749FC0020FFF746FCC32073
:10337800FFF754FC3C20FFF740FC0020FFF73DFC22
:103388003A20FFF73AFC0020FFF737FC3920FFF717
:1033980034FC0020FFF731FC3720FFF72EFC00201B
:1033A800FFF72BFC3C20FFF728FC0020FFF725FC4B
:1033B8003620FFF722FC0020FFF71FFC3220FFF722
:1033C8001CFC0020FFF719FC2F20FFF716FC00203B
:1033D800FFF713FC2C20FFF710FC0020FFF70DFC73
:1033E8002920FFF70AFC0020FFF707FC2620FFF73B
:1033F80004FC0020FFF701FC2420FFF7FEFB00205F
:10340800FFF7FBFB2420FFF7F8FB0020FFF7F5FB95
:103418002320FFF7F2FB0020FFF7EFFB3C20FFF72C
:10342800ECFB0020FFF7E9FB3620FFF7E6FB002066
:10343800FFF7E3FB3220FFF7E0FB0020FFF7DDFB9F
:103448002F20FFF7DAFB0020FFF7D7FB2C20FFF730
:10345800D4FB0020FFF7D1FB2920FFF7CEFB00208B
:10346800FFF7CBFB2620FFF7C8FB0020FFF7C5FBC3
:103478002420FFF7C2FB0020FFF7BFFB2420FFF743
:10348800BCFB0020FFF7B9FB2320FFF7B6FB0020A9
:10349800FFF7B3FBC420FFF7C1FB6220FFF7ADFBCA
:1034A8000020FFF7AAFB0520FFF7A7FB0020FFF786
:1034B800A4FB8420FFF7A1FB0020FFF79EFBF02070
:1034C800FFF79BFB0020FFF798FB1820FFF795FB01
:1034D8000020FFF792FBA420FFF78FFB0020FFF7E7
:1034E8008CFB1820FFF789FB0020FFF786FB502094
:1034F800FFF783FB0020FFF780FB0C20FFF77DFB25
:103508000020FFF77AFB1720FFF777FB0020FFF773
:1035180074FB9520FFF771FB0020FFF76EFBF3208B
:10352800FFF76BFB0020FFF768FBE620FFF765FB62
:103538000020FFF762FBC520FFF770FB3220FFF782
:103548005CFB0020FFF759FB4420FFF756FB0020E7
:10355800FFF753FB6520FFF750FB0020FFF74DFBFB
:103568007620FFF74AFB0020FFF747FB8820FFF78C
:1035780044FB0020FFF741FBC620FFF74FFB20204C
:10358800FFF73BFB0020FFF738FB1720FFF735FB61
:103598000020FFF732FB0120FFF72FFB0020FFF789
:1035A8002CFBC720FFF73AFB0020FFF726FB002083
:1035B800FFF723FB0020FFF720FB0020FFF71DFB90
:1035C800C820FFF72BFB0020FFF717FB0020FFF7B1
:1035D80014FB0020FFF711FB0020FFF70EFBC920AA
:1035E800FFF71CFB0020FFF708FB0020FFF705FB97
:1035F8000020FFF702FB0020FFF7FFFA0020FFF78B
:10360800FCFA0020FFF7F9FA0020FFF7F6FA00208D
:10361800FFF7F3FA0020FFF7F0FA0020FFF7EDFAC2
:103628000020FFF7EAFA0020FFF7E7FA0020FFF78B
:10363800E4FA0020FFF7E1FA0020FFF7DEFA0020A5
:10364800FFF7DBFAE020FFF7E9FA1620FFF7D5FAD3
:103658000020FFF7D2FA1C20FFF7CFFA0020FFF76F
:10366800CCFA2120FFF7C9FA0020FFF7C6FA362066
:10367800FFF7C3FA0020FFF7C0FA4620FFF7BDFAAC
:103688000020FFF7BAFA5220FFF7B7FA0020FFF739
:10369800B4FA6420FFF7B1FA0020FFF7AEFA7A20F7
:1036A800FFF7ABFA0020FFF7A8FA8B20FFF7A5FA7F
:1036B8000020FFF7A2FA9920FFF79FFA0020FFF7F2
:1036C8009CFAA820FFF799FA0020FFF796FAB9208C
:1036D800FFF793FA0020FFF790FAC420FFF78DFA5E
:1036E8000020FFF78AFACA20FFF787FA0020FFF7C1
:1036F80084FAD220FFF781FA0020FFF77EFAD9205A
:10370800FFF77BFA0020FFF778FAE020FFF775FA59
:103718000020FFF772FAF320FFF76FFA0020FFF797
:103728006CFAE120FFF77AFA1620FFF766FA002014
:10373800FFF763FA1C20FFF760FA0020FFF75DFA35
:103748002220FFF75AFA0020FFF757FA3620FFF732
:1037580054FA0020FFF751FA4520FFF74EFA0020EF
:10376800FFF74BFA5220FFF748FA0020FFF745FA17
:103778006420FFF742FA0020FFF73FFA7A20FFF7AC
:103788003CFA0020FFF739FA8B20FFF736FA0020C1
:10379800FFF733FA9920FFF730FA0020FFF72DFAE8
:1037A800A820FFF72AFA0020FFF727FAB920FFF729
:1037B80024FA0020FFF721FAC420FFF71EFA0020A0
:1037C800FFF71BFACA20FFF718FA0020FFF715FACF
:1037D800D220FFF712FA0020FFF70FFAD820FFF7E0
:1037E8000CFA0020FFF709FAE020FFF706FA00209C
:1037F800FFF703FAF320FFF700FA0020FFF7FDF9BF
:10380800E220FFF70BFA0520FFF7F7F90020FFF792
:10381800F4F90B20FFF7F1F90020FFF7EEF91B2070
:10382800FFF7EBF90020FFF7E8F93420FFF7E5F997
:103838000020FFF7E2F94420FFF7DFF90020FFF747
:10384800DCF94F20FFF7D9F90020FFF7D6F96120FE
:10385800FFF7D3F90020FFF7D0F97920FFF7CDF96A
:103868000020FFF7CAF98820FFF7C7F90020FFF703
:10387800C4F99720FFF7C1F90020FFF7BEF9A62089
:10388800FFF7BBF90020FFF7B8F9B720FFF7B5F944
:103898000020FFF7B2F9C220FFF7AFF90020FFF7C9
:1038A800ACF9C720FFF7A9F90020FFF7A6F9D12046
:1038B800FFF7A3F90020FFF7A0F9D620FFF79DF93D
:1038C8000020FFF79AF9DD20FFF797F90020FFF7AE
:1038D80094F9F320FFF791F90020FFF78EF9E32020
:1038E800FFF79CF90520FFF788F90020FFF785F915
:1038F8000A20FFF782F90020FFF77FF91C20FFF765
:103908007CF90020FFF779F93320FFF776F90020DA
:10391800FFF773F94420FFF770F90020FFF76DF9FE
:103928005020FFF76AF90020FFF767F96220FFF7D8
:1039380064F90020FFF761F97820FFF75EF90020AD
:10394800FFF75BF98820FFF758F90020FFF755F9D2
:103958009720FFF752F90020FFF74FF9A620FFF74D
:103968004CF90020FFF749F9B720FFF746F9002086
:10397800FFF743F9C220FFF740F90020FFF73DF9B0
:10398800C720FFF73AF90020FFF737F9D120FFF7F2
:1039980034F90020FFF731F9D520FFF72EF9002080
:1039A800FFF72BF9DD20FFF728F90020FFF725F9AD
:1039B800F320FFF722F90020FFF71FF9E420FFF7B3
:1039C8002DF90120FFF719F90020FFF716F901205A
:1039D800FFF713F90020FFF710F90220FFF70DF9A0
:1039E8000020FFF70AF92A20FFF707F90020FFF760
:1039F80004F93C20FFF701F90020FFF7FEF84B20FF
:103A0800FFF7FBF80020FFF7F8F85D20FFF7F5F85F
:103A18000020FFF7F2F87420FFF7EFF80020FFF717
:103A2800ECF88420FFF7E9F80020FFF7E6F8932088
:103A3800FFF7E3F80020FFF7E0F8A220FFF7DDF832
:103A48000020FFF7DAF8B320FFF7D7F80020FFF7D8
:103A5800D4F8BE20FFF7D1F80020FFF7CEF8C42035
:103A6800FFF7CBF80020FFF7C8F8CD20FFF7C5F81F
:103A78000020FFF7C2F8D320FFF7BFF80020FFF7B8
:103A8800BCF8DD20FFF7B9F80020FFF7B6F8F320FF
:103A9800FFF7B3F80020FFF7B0F8E520FFF7BEF80E
:103AA8000020FFF7AAF80020FFF7A7F80020FFF78B
:103AB800A4F80020FFF7A1F80220FFF79EF80020E5
:103AC800FFF79BF82920FFF798F80020FFF795F8F3
:103AD8003C20FFF792F80020FFF78FF84B20FFF704
:103AE8008CF80020FFF789F85D20FFF786F80020A2
:103AF800FFF783F87420FFF780F80020FFF77DF8C0
:103B08008420FFF77AF80020FFF777F89320FFF773
:103B180074F80020FFF771F8A220FFF76EF8002074
:103B2800FFF76BF8B320FFF768F80020FFF765F898
:103B3800BE20FFF762F80020FFF75FF8C420FFF708
:103B48005CF80020FFF759F8CD20FFF756F8002061
:103B5800FFF753F8D320FFF750F80020FFF74DF890
:103B6800DC20FFF74AF80020FFF747F8F320FFF7BB
:103B780044F80020FFF741F8E620FFF74FF811203E
:103B8800FFF73BF80020FFF738F83420FFF735F847
:103B98000020FFF732F85620FFF72FF80020FFF734
:103BA8002CF87620FFF729F80020FFF726F8772071
:103BB800FFF723F80020FFF720F86620FFF71DF82D
:103BC8000020FFF71AF88820FFF717F80020FFF702
:103BD80014F89920FFF711F80020FFF70EF8BB2022
:103BE800FFF70BF80020FFF708F89920FFF705F812
:103BF8000020FFF702F86620FEF7FFFF0020FEF71F
:103C0800FCFF5520FEF7F9FF0020FEF7F6FF5520D0
:103C1800FEF7F3FF0020FEF7F0FF4520FEF7EDFF6B
:103C28000020FEF7EAFF4320FEF7E7FF0020FEF73B
:103C3800E4FF4420FEF7E1FF0020FEF7DEFFE72067
:103C4800FEF7ECFF3220FEF7D8FF0020FEF7D5FF85
:103C58005520FEF7D2FF0020FEF7CFFF7620FEF7B3
:103C6800CCFF0020FEF7C9FF6620FEF7C6FF002044
:103C7800FEF7C3FF6720FEF7C0FF0020FEF7BDFF79
:103C88006720FEF7BAFF0020FEF7B7FF8720FEF790
:103C9800B4FF0020FEF7B1FF9920FEF7AEFF002029
:103CA800FEF7ABFFBB20FEF7A8FF0020FEF7A5FF3D
:103CB8009920FEF7A2FF0020FEF79FFF7720FEF76E
:103CC8009CFF0020FEF799FF4420FEF796FF002096
:103CD800FEF793FF5620FEF790FF0020FEF78DFFBA
:103CE8002320FEF78AFF0020FEF787FF3320FEF728
:103CF80084FF0020FEF781FF4520FEF77EFF0020AD
:103D0800FEF77BFFE820FEF789FF0020FEF775FF2E
:103D18000020FEF772FF9920FEF76FFF0020FEF7E4
:103D28006CFF8720FEF769FF0020FEF766FF8820FA
:103D3800FEF763FF0020FEF760FF7720FEF75DFFC8
:103D48000020FEF75AFF6620FEF757FF0020FEF717
:103D580054FF8820FEF751FF0020FEF74EFFAA20EF
:103D6800FEF74BFF0020FEF748FFBB20FEF745FF9C
:103D78000020FEF742FF9920FEF73FFF0020FEF7E4
:103D88003CFF6620FEF739FF0020FEF736FF55207E
:103D9800FEF733FF0020FEF730FF5520FEF72DFF1A
:103DA8000020FEF72AFF4420FEF727FF0020FEF739
:103DB80024FF4420FEF721FF0020FEF71EFF5520B8
:103DC800FEF71BFF0020FEF718FFE920FEF726FF8D
:103DD800AA20FEF712FF0020FEF70FFF0020FEF7D3
:103DE8000CFF0020FEF709FF0020FEF717FFAA20AE
:103DF800FEF703FFCF20FEF711FF0020FEF7FDFEC0
:103E08000020FEF7FAFE0020FEF7F7FE0020FEF77E
:103E1800F4FE0020FEF7F1FE0020FEF7EEFE002083
:103E2800FEF7EBFE0020FEF7E8FE0020FEF7E5FEB9
:103E38000020FEF7E2FE0020FEF7DFFE0020FEF77E
:103E4800DCFE0020FEF7D9FE0020FEF7D6FE00209B
:103E5800FEF7D3FE0020FEF7D0FE0020FEF7CDFED1
:103E6800F020FEF7DBFE0020FEF7C7FE5020FEF72D
:103E7800C4FE0020FEF7C1FE0020FEF7BEFE0020B3
:103E8800FEF7BBFEF320FEF7C9FE0020FEF7B5FEE5
:103E9800F920FEF7C3FE0620FEF7AFFE1020FEF75E
:103EA800ACFE2920FEF7A9FE0020FEF7A6FE3A2068
:103EB800FEF7B4FE5520FEF7A0FE1120FEF7AEFE79
:103EC800642001F01BFF2920FEF7A8FE3520FEF72D
:103ED800A5FE0020FEF791FE5120FEF79FFEFF2071
:103EE800FEF78BFE5320FEF799FE2C20FEF785FE89
:103EF8005520FEF793FE8220FEF77FFE2C20FEF76A
:103F08008DFE08BD08B5E220FEF788FE1D20FEF7ED
:103F180074FE0220FEF771FE0420FEF76EFE642098
:103F280001F0E5FEE020FEF779FE0120FEF765FED0
:103F38000A2001F0E3FEE020FEF770FE0320FEF702
:103F48005CFE0C2001F0DAFE0120FEF767FE0A2075
:103F580001F0D4FEE620FEF761FE2F20FEF74DFEAD
:103F6800FF20FEF74AFEFF20FEF747FEB020FEF7CF
:103F780055FE2020FEF741FE0020FEF73EFE0320FE
:103F8800FEF73BFE40F21F30FEF737FE0120FEF73A
:103F980034FE40F2DF10FEF730FE0020FEF72DFE63
:103FA800B420FEF73BFE0420FEF727FE40F21F4038
:103FB800FEF723FE0020FEF720FE2E20FEF71DFE52
:103FC8000020FEF71AFE0020FEF717FE0020FEF77D
:103FD80014FE0020FEF711FEB620FEF71FFE022099
:103FE800FEF70BFE4FF40370FEF707FE0020FEF706
:103FF80004FE1720FEF701FE1520FEF7FEFD002047
:10400800FEF7FBFD0020FEF7F8FDF020FEF706FEA8
:104018000320FEF7F2FD2920FEF700FED020FEF770
:10402800FDFD0020FEF7E9FDBE20FEF7F7FD0520A7
:10403800FEF7E3FDFE20FEF7E0FD0120FEF7DDFDC3
:104048000020FEF7DAFD0020FEF7D7FD0020FEF77E
:10405800D4FDB820FEF7E2FD0320FEF7CEFD0120D7
:10406800FEF7CBFDBA20FEF7D9FD0120FEF7C5FD0E
:1040780008BD4FF0D843A3F87E00A3F8801070471E
:1040880008B555214FF47040FFF7F3FFAA214FF20E
:104098000100FFF7EEFF52214FF20200FFF7E9FFA0
:1040A80008214FF20300FFF7E4FF01214FF204005B
:1040B800FFF7DFFF0D214FF43040FFF7DAFF0D2146
:1040C8004BF20100FFF7D5FF0D214BF20200FFF77D
:1040D800D0FF34214FF43640FFF7CBFF34214BF2A9
:1040E8000160FFF7C6FF34214BF20260FFF7C1FF02
:1040F8000D214FF43140FFF7BCFF0D214BF20110A9
:10410800FFF7B7FF0D214BF20210FFF7B2FF342182
:104118004FF43740FFF7ADFF34214BF20170FFF742
:10412800A8FF34214BF20270FFF7A3FF00214FF4E0
:104138003240FFF79EFF00214BF20120FFF799FF65
:1041480000214BF20220FFF794FF24214FF438405E
:10415800FFF78FFF24214BF60100FFF78AFF242188
:104168004BF60200FFF785FF01214FF43F40FFF7B0
:1041780080FF0F214FF43340FFF77BFF0F214BF2F5
:104188000130FFF776FF0F214BF20230FFF771FF86
:1041980034214FF43940FFF76CFF34214BF60110FE
:1041A800FFF767FF34214BF60210FFF762FF082183
:1041B8004FF43540FFF75DFF08214BF20150FFF740
:1041C80058FF08214BF20250FFF753FF03214FF429
:1041D8004240FFF74EFF24214FF43A40FFF749FFD2
:1041E80024214BF60120FFF744FF24214BF602203F
:1041F800FFF73FFF00214FF43C40FFF73AFF7821DB
:104208004BF60140FFF735FF00214BF60240FFF760
:1042180030FF00214FF43D40FFF72BFF78214BF68C
:104228000150FFF726FF00214BF60250FFF721FF50
:1042380000214FF43E40FFF71CFF64214BF601605C
:10424800FFF717FF00214FF45140FFF712FF33210A
:104258004DF20110FFF70DFF00214DF20210FFF79C
:1042680008FF34214DF20310FFF703FF00214DF240
:104278000410FFF7FEFE3A214DF20510FFF7F9FE94
:1042880000214DF20610FFF7F4FE4A214DF2071007
:10429800FFF7EFFE00214DF20810FFF7EAFE5C2160
:1042A8004DF20910FFF7E5FE00214DF20A10FFF765
:1042B800E0FE81214DF20B10FFF7DBFE00214DF2ED
:1042C8000C10FFF7D6FEA6214DF20D10FFF7D1FE18
:1042D80000214DF20E10FFF7CCFEE5214DF20F1034
:1042E800FFF7C7FE01214DF21010FFF7C2FE1321A0
:1042F8004DF21110FFF7BDFE01214DF21210FFF72C
:10430800B8FE54214DF21310FFF7B3FE01214DF210
:104318001410FFF7AEFE82214DF21510FFF7A9FE2B
:1043280001214DF21610FFF7A4FECA214DF2171015
:10433800FFF79FFE02214DF21810FFF79AFE0021A9
:104348004DF21910FFF795FE02214DF21A10FFF7F2
:1043580090FE01214DF21B10FFF78BFE02214DF25A
:104368001C10FFF786FE34214DF21D10FFF781FE69
:1043780002214DF21E10FFF77CFE67214DF21F103F
:10438800FFF777FE02214DF22010FFF772FE84211D
:104398004DF22110FFF76DFE02214DF22210FFF7BA
:1043A80068FEA4214DF22310FFF763FE02214DF2AF
:1043B8002410FFF75EFEB7214DF22510FFF759FED6
:1043C80002214DF22610FFF754FECF214DF227109F
:1043D800FFF74FFE02214DF22810FFF74AFEDE21BB
:1043E8004DF22910FFF745FE02214DF22A10FFF782
:1043F80040FEF2214DF22B10FFF73BFE02214DF259
:104408002C10FFF736FEFE214DF22D10FFF731FE7E
:1044180003214DF22E10FFF72CFE10214DF22F1024
:10442800FFF727FE03214DF23010FFF722FE33215C
:104438004DF23110FFF71DFE03214DF23210FFF748
:1044480018FE6D214DF23310FFF713FE00214FF4D3
:104458005240FFF70EFE33214DF20120FFF709FE0F
:1044680000214DF20220FFF704FE34214DF2032013
:10447800FFF7FFFD00214DF20420FFF7FAFD3A2176
:104488004DF20520FFF7F5FD00214DF20620FFF75C
:10449800F0FD4A214DF20720FFF7EBFD00214DF218
:1044A8000820FFF7E6FD5C214DF20920FFF7E1FD4A
:1044B80000214DF20A20FFF7DCFD81214DF20B208F
:1044C800FFF7D7FD00214DF20C20FFF7D2FDA62102
:1044D8004DF20D20FFF7CDFD00214DF20E20FFF724
:1044E800C8FDE5214DF20F20FFF7C3FD01214DF274
:1044F8001020FFF7BEFD13214DF21120FFF7B9FD83
:1045080001214DF21220FFF7B4FD54214DF2132082
:10451800FFF7AFFD01214DF21420FFF7AAFD82211C
:104528004DF21520FFF7A5FD01214DF21620FFF7EA
:10453800A0FDCA214DF21720FFF79BFD02214DF285
:104548001820FFF796FD00214DF21920FFF791FD85
:1045580002214DF21A20FFF78CFD01214DF21B209C
:10456800FFF787FD02214DF21C20FFF782FD342161
:104578004DF21D20FFF77DFD02214DF21E20FFF7B1
:1045880078FD67214DF21F20FFF773FD02214DF2E0
:104598002020FFF76EFD84214DF22120FFF769FDF1
:1045A80002214DF22220FFF764FDA4214DF22320C1
:1045B800FFF75FFD02214DF22420FFF75AFDB721D6
:1045C8004DF22520FFF755FD02214DF22620FFF779
:1045D80050FDCF214DF22720FFF74BFD02214DF270
:1045E8002820FFF746FDDE214DF22920FFF741FD87
:1045F80002214DF22A20FFF73CFDF2214DF22B203B
:10460800FFF737FD02214DF22C20FFF732FDFE2186
:104618004DF22D20FFF72DFD03214DF22E20FFF73F
:1046280028FD10214DF22F20FFF723FD03214DF225
:104638003020FFF71EFD33214DF23120FFF719FD21
:1046480003214DF23220FFF714FD6D214DF2332086
:10465800FFF70FFD00214FF45340FFF70AFD332108
:104668004DF20130FFF705FD00214DF20230FFF752
:1046780000FD34214DF20330FFF7FBFC00214DF221
:104688000430FFF7F6FC3A214DF20530FFF7F1FC54
:1046980000214DF20630FFF7ECFC4A214DF20730BD
:1046A800FFF7E7FC00214DF20830FFF7E2FC5C2140
:1046B8004DF20930FFF7DDFC00214DF20A30FFF71B
:1046C800D8FC81214DF20B30FFF7D3FC00214DF2CD
:1046D8000C30FFF7CEFCA6214DF20D30FFF7C9FCD8
:1046E80000214DF20E30FFF7C4FCE5214DF20F30EA
:1046F800FFF7BFFC01214DF21030FFF7BAFC132180
:104708004DF21130FFF7B5FC01214DF21230FFF7E1
:10471800B0FC54214DF21330FFF7ABFC01214DF2F0
:104728001430FFF7A6FC82214DF21530FFF7A1FCEB
:1047380001214DF21630FFF79CFCCA214DF21730CB
:10474800FFF797FC02214DF21830FFF792FC002189
:104758004DF21930FFF78DFC02214DF21A30FFF7A8
:1047680088FC01214DF21B30FFF783FC02214DF23A
:104778001C30FFF77EFC34214DF21D30FFF779FC29
:1047880002214DF21E30FFF774FC67214DF21F30F5
:10479800FFF76FFC02214DF22030FFF76AFC8421FD
:1047A8004DF22130FFF765FC02214DF22230FFF770
:1047B80060FCA4214DF22330FFF75BFC02214DF28F
:1047C8002430FFF756FCB7214DF22530FFF751FC96
:1047D80002214DF22630FFF74CFCCF214DF2273055
:1047E800FFF747FC02214DF22830FFF742FCDE219B
:1047F8004DF22930FFF73DFC02214DF22A30FFF738
:1048080038FCF2214DF22B30FFF733FC02214DF238
:104818002C30FFF72EFCFE214DF22D30FFF729FC3E
:1048280003214DF22E30FFF724FC10214DF22F30DA
:10483800FFF71FFC03214DF23030FFF71AFC33213C
:104848004DF23130FFF715FC03214DF23230FFF7FE
:1048580010FC6D214DF23330FFF70BFC00214FF4B3
:104868005440FFF706FC33214DF20140FFF701FCED
:1048780000214DF20240FFF7FCFB34214DF20340CA
:10488800FFF7F7FB00214DF20440FFF7F2FB3A2156
:104898004DF20540FFF7EDFB00214DF20640FFF712
:1048A800E8FB4A214DF20740FFF7E3FB00214DF2F8
:1048B8000840FFF7DEFB5C214DF20940FFF7D9FB0A
:1048C80000214DF20A40FFF7D4FB81214DF20B4045
:1048D800FFF7CFFB00214DF20C40FFF7CAFBA621E2
:1048E8004DF20D40FFF7C5FB00214DF20E40FFF7DA
:1048F800C0FBE5214DF20F40FFF7BBFB01214DF254
:104908001040FFF7B6FB13214DF21140FFF7B1FB42
:1049180001214DF21240FFF7ACFB54214DF2134038
:10492800FFF7A7FB01214DF21440FFF7A2FB8221FC
:104938004DF21540FFF79DFB01214DF21640FFF7A0
:1049480098FBCA214DF21740FFF793FB02214DF265
:104958001840FFF78EFB00214DF21940FFF789FB45
:1049680002214DF21A40FFF784FB01214DF21B4052
:10497800FFF77FFB02214DF21C40FFF77AFB342141
:104988004DF21D40FFF775FB02214DF21E40FFF767
:1049980070FB67214DF21F40FFF76BFB02214DF2C0
:1049A8002040FFF766FB84214DF22140FFF761FBB1
:1049B80002214DF22240FFF75CFBA4214DF2234077
:1049C800FFF757FB02214DF22440FFF752FBB721B6
:1049D8004DF22540FFF74DFB02214DF22640FFF72F
:1049E80048FBCF214DF22740FFF743FB02214DF250
:1049F8002840FFF73EFBDE214DF22940FFF739FB47
:104A080002214DF22A40FFF734FBF2214DF22B40F0
:104A1800FFF72FFB02214DF22C40FFF72AFBFE2166
:104A28004DF22D40FFF725FB03214DF22E40FFF7F5
:104A380020FB10214DF22F40FFF71BFB03214DF205
:104A48003040FFF716FB33214DF23140FFF711FBE1
:104A580003214DF23240FFF70CFB6D214DF233403C
:104A6800FFF707FB00214FF45540FFF702FB332106
:104A78004DF20150FFF7FDFA00214DF20250FFF709
:104A8800F8FA34214DF20350FFF7F3FA00214DF202
:104A98000450FFF7EEFA3A214DF20550FFF7E9FA14
:104AA80000214DF20650FFF7E4FA4A214DF2075073
:104AB800FFF7DFFA00214DF20850FFF7DAFA5C2120
:104AC8004DF20950FFF7D5FA00214DF20A50FFF7D1
:104AD800D0FA81214DF20B50FFF7CBFA00214DF2AD
:104AE8000C50FFF7C6FAA6214DF20D50FFF7C1FA98
:104AF80000214DF20E50FFF7BCFAE5214DF20F50A0
:104B0800FFF7B7FA01214DF21050FFF7B2FA13215F
:104B18004DF21150FFF7ADFA01214DF21250FFF797
:104B2800A8FA54214DF21350FFF7A3FA01214DF2D0
:104B38001450FFF79EFA82214DF21550FFF799FAAB
:104B480001214DF21650FFF794FACA214DF2175081
:104B5800FFF78FFA02214DF21850FFF78AFA002169
:104B68004DF21950FFF785FA02214DF21A50FFF75E
:104B780080FA01214DF21B50FFF77BFA02214DF21A
:104B88001C50FFF776FA34214DF21D50FFF771FAE9
:104B980002214DF21E50FFF76CFA67214DF21F50AB
:104BA800FFF767FA02214DF22050FFF762FA8421DD
:104BB8004DF22150FFF75DFA02214DF22250FFF726
:104BC80058FAA4214DF22350FFF753FA02214DF26F
:104BD8002450FFF74EFAB7214DF22550FFF749FA56
:104BE80002214DF22650FFF744FACF214DF227500B
:104BF800FFF73FFA02214DF22850FFF73AFADE217B
:104C08004DF22950FFF735FA02214DF22A50FFF7ED
:104C180030FAF2214DF22B50FFF72BFA02214DF218
:104C28002C50FFF726FAFE214DF22D50FFF721FAFE
:104C380003214DF22E50FFF71CFA10214DF22F5090
:104C4800FFF717FA03214DF23050FFF712FA33211C
:104C58004DF23150FFF70DFA03214DF23250FFF7B4
:104C680008FA6D214DF23350FFF703FA00214FF493
:104C78005640FFF7FEF933214DF20160FFF7F9F9CD
:104C880000214DF20260FFF7F4F934214DF2036080
:104C9800FFF7EFF900214DF20460FFF7EAF93A2136
:104CA8004DF20560FFF7E5F900214DF20660FFF7C8
:104CB800E0F94A214DF20760FFF7DBF900214DF2D8
:104CC8000860FFF7D6F95C214DF20960FFF7D1F9CA
:104CD80000214DF20A60FFF7CCF981214DF20B60FB
:104CE800FFF7C7F900214DF20C60FFF7C2F9A621C2
:104CF8004DF20D60FFF7BDF900214DF20E60FFF790
:104D0800B8F9E5214DF20F60FFF7B3F901214DF233
:104D18001060FFF7AEF913214DF21160FFF7A9F902
:104D280001214DF21260FFF7A4F954214DF21360EE
:104D3800FFF79FF901214DF21460FFF79AF98221DC
:104D48004DF21560FFF795F901214DF21660FFF756
:104D580090F9CA214DF21760FFF78BF902214DF245
:104D68001860FFF786F900214DF21960FFF781F905
:104D780002214DF21A60FFF77CF901214DF21B6008
:104D8800FFF777F902214DF21C60FFF772F9342121
:104D98004DF21D60FFF76DF902214DF21E60FFF71D
:104DA80068F967214DF21F60FFF763F902214DF2A0
:104DB8002060FFF75EF984214DF22160FFF759F971
:104DC80002214DF22260FFF754F9A4214DF223602D
:104DD800FFF74FF902214DF22460FFF74AF9B72196
:104DE8004DF22560FFF745F902214DF22660FFF7E5
:104DF80040F9CF214DF22760FFF73BF902214DF230
:104E08002860FFF736F9DE214DF22960FFF731F906
:104E180002214DF22A60FFF72CF9F2214DF22B60A6
:104E2800FFF727F902214DF22C60FFF722F9FE2146
:104E38004DF22D60FFF71DF903214DF22E60FFF7AB
:104E480018F910214DF22F60FFF713F903214DF2E5
:104E58003060FFF70EF933214DF23160FFF709F9A1
:104E680003214DF23260FFF704F96D214DF23360F2
:104E7800FFF7FFF855214FF47040FFF7FAF8AA2121
:104E88004FF20100FFF7F5F852214FF20200FFF749
:104E9800F0F808214FF20300FFF7EBF800214FF27A
:104EA8000400FFF7E6F8CC214FF43140FFF7E1F8B2
:104EB80000214BF20110FFF7DCF805214FF43640D2
:104EC800FFF7D7F870214FF43740FFF7D2F8702179
:104ED8004BF20170FFF7CDF801214FF43840FFF78E
:104EE800C8F803214BF60100FFF7C3F803214BF67E
:104EF8000200FFF7BEF803214BF60300FFF7B9F8ED
:104F080002214FF43C40FFF7B4F800214BF6014072
:104F1800FFF7AFF800214BF60240FFF7AAF8D021BF
:104F28004FF44940FFF7A5F802214CF60110FFF7AE
:104F3800A0F850214CF60210FFF79BF850214CF6D0
:104F48000310FFF796F850214CF60410FFF791F87C
:104F580000214FF45450FFF78CF855214FF4685056
:104F6800FFF787F84FF48850FDF758FE782000F0D7
:104F7800BEFE4FF42450FDF751FE08BD034B1A89BD
:104F88004FF0D843A3F87E20704700BFA406002046
:104F980070B505460C46404B9B8841F66312934218
:104FA80017D045F21052934257D03B4E7089FDF707
:104FB80035FE280AFDF721FEE8B2FDF71EFEB0898E
:104FC800FDF72CFE200AFDF718FEE0B2FDF715FEEE
:104FD80070BD314B9B7953BB2F4B1888451BADB225
:104FE800013DADB25889FDF719FE0020FDF705FE19
:104FF8000020FDF702FE280AFDF7FFFDE8B2FDF7E5
:10500800FCFD254DA889FDF709FE200AFDF7F5FDF1
:10501800E0B2FDF7F2FD68880138C0F30F20FDF714
:10502800ECFD68880138C0B2FDF7E7FDD0E71A4EFD
:105038007089FDF7F3FD280AFDF7DFFDE8B2FDF7FB
:10504800DCFD30880138C0F30F20FDF7D6FD30882D
:105058000138C0B2FDF7D1FDD3E70F4E7089FDF7D7
:10506800DDFD280AFDF7C9FD7089013080B2FDF722
:10507800D5FDE8B2FDF7C1FDB089FDF7CFFD200AE7
:10508800FDF7BBFDB089013080B2FDF7C7FDE0B286
:10509800FDF7B3FD9CE700BFA406002010B5744BD4
:1050A8009B79012B10D02BB9714B9A8841F6631369
:1050B8009A420FD00138062800F28480DFE800F019
:1050C8007472706E6C6A1600694A918841F66312B0
:1050D8009142E8D00728EDD8DFE800F072706C6ED6
:1050E80006046A68002402E0802400E0E024604BA3
:1050F8009B8845F21052934266D0362049F24132DD
:10510800934203D047F28972934201D144F00804D4
:105118002146FEF7AEFF564B9B8841F66312934239
:105128000AD014F0200F52D0514A11885288914267
:1051380002D24F480280418045F2105293424FD02C
:105148004B4C6089FDF76AFD0020FDF756FD0020F5
:10515800FDF753FD20880138C0F30F20FDF74DFD02
:1051680020880138C0B2FDF748FDA089FDF756FD3B
:105178000020FDF742FD0020FDF73FFD6088013863
:10518800C0F30F20FDF739FD60880138C0B2FDF784
:1051980034FD10BDA024AAE76024A8E72024A6E7D0
:1051A800C024A4E74024A2E78024A0E740249EE787
:1051B800C0249CE720249AE7602498E7E02496E737
:1051C800A02494E7002492E74FF4585096E7284A21
:1051D800118852889142AFD9254802804180ABE7B7
:1051E800234C6089FDF71AFD0020FDF706FD608954
:1051F800013080B2FDF712FD0020FDF7FEFC60894A
:10520800023080B2FDF70AFD20880138C0F30F2074
:10521800FDF7F3FC6089033080B2FDF7FFFC2088BE
:105228000138C0B2FDF7E9FCA089FDF7F7FC0020C2
:10523800FDF7E3FCA089013080B2FDF7EFFC002008
:10524800FDF7DBFCA089023080B2FDF7E7FC60883F
:105258000138C0F30F20FDF7D0FCA089033080B2DD
:10526800FDF7DCFC60880138C0B2FDF7C6FC90E7AA
:10527800A406002010B51446FFF78AFEFFF77EFE4D
:10528800A4B24FF0D843A3F8804010BD000000003E
:1052980010B50446BE20FDF7C1FC0520FDF7ADFCA6
:1052A8002046FBF709FA0CA3D3E90023FAF788FF95
:1052B800FBF76CFA80B2FDF7A0FC0120FDF79DFC1E
:1052C800FF20FDF79AFC0020FDF797FC0020FDF772
:1052D80094FC10BDAFF3008066666666666604409F
:1052E80008B5444B9871002843D1F0221A804FF436
:1052F800A0725A809B8845F21052934212D041F610
:10530800631293421FD03B4A2C2111812A215181DB
:105318002B21918145F21032934222D00020FFF7D1
:10532800BDFE08BD334A4FF4305111814FF4285166
:1053380051814FF42C5191814FF4F07111804FF449
:1053480048715180E6E72B4A2C2111812B2151818C
:105358002A2191814FF4F07111804FF448715180E6
:10536800D8E7244B4FF4A0721A804FF4F0725A8099
:10537800D4E7204B4FF4A0721A80F0225A809B8801
:1053880045F21052934216D041F66312934223D04D
:10539800184A2C2111812A2151812B21918145F212
:1053A80010329342BAD1134B4FF4F0721A804FF473
:1053B800A0725A80B2E70F4A4FF4305111814FF46E
:1053C800285151814FF42C5191814FF4487111802B
:1053D8004FF4F0715180E2E7064A2C2111812A210D
:1053E80051812B2191814FF4487111804FF4F07154
:1053F8005180D4E7A406002038B505460A4B1A8820
:105408005C8802FB04F400210846FFF7C1FDFFF7A2
:10541800B5FD002304E04FF0D842A2F880500133D4
:10542800A342F8D338BD00BFA40600202DE9F041FF
:1054380098B000240094754B1A6B42F040021A632E
:105448001A6B02F040020092009A01941A6B42F023
:1054580008021A631A6B02F008020192019A029478
:105468001A6B42F008021A631A6B02F008020292E1
:10547800029A03941A6B42F040021A631A6B02F004
:1054880040020392039A04941A6B42F002021A63D0
:105498001B6B03F002030493049B4FF48055139590
:1054A800022314930127159716930C23179313A916
:1054B8005748FCF7C7FB20231393DFF8588113A93B
:1054C8004046FCF7BFFB1026139613A94046FCF78D
:1054D800B9FB139513A95048FCF7B4FB4FF40043EC
:1054E8001393149713A94D48FCF7ACFB4C484FF0A5
:1054F8002043036003F58273436006238360C4601E
:1055080046618461C46144628562C4624FF4804329
:105518000363446384630F230C930D943C230E931D
:105528001294089409230593069407930B9405AAEB
:105538000CA9FCF7CBFF322000F0E0FBD320FDF7ED
:105548006DFBFDF74DFB374CA080FDF749FBA080B4
:10555800FDF746FBA0800002A080FDF741FBA38871
:10556800184380B2A08049F2413398425CD12D4B58
:105578009B8847F28972934200F0E08049F24132F9
:10558800934200F0DE8045F21032934200F0DC8056
:1055980045F21052934200F0DA8041F663129342CA
:1055A80000F0D8801F4B9B8849F24132934207D0C4
:1055B80041F66312934203D047F28972934209D1AC
:1055C8000323059307931648036B826805A940686F
:1055D800FDF7E4FA134B9B8845F21032934200F032
:1055E800BF8045F21052934200F0BA800020FFF7C6
:1055F80077FE01224FF400410848FCF71CFC4FF6E7
:10560800FF70FFF7F9FE18B0BDE8F08100380240DE
:1056180000180240000C024000140240000402403E
:1056280054060020A40600200420FDF7F7FAFDF731
:10563800D7FAA080FDF7D4FAA080FDF7D1FAA080B0
:105648000002A080FDF7CCFAA388184380B2A0809E
:1056580048F2525398426DD0474B9A8847F2897363
:105668009A4284D0D420FDF7D9FAFDF7B9FA424C12
:10567800A080FDF7B5FAA080FDF7B2FAA08000027D
:10568800A080FDF7ADFAA388184380B2A08045F248
:10569800103398423FF46BAF55214FF47040FEF73A
:1056A800E8FCAA214FF20100FEF7E3FC52214FF279
:1056B8000200FEF7DEFC08214FF20300FEF7D9FCDA
:1056C80001214FF20400FEF7D4FC4FF44540FDF7EA
:1056D800A5FAFDF785FAA0800002A0804CF20150DF
:1056E800FDF79CFAFDF77CFAA3881843A0800520F3
:1056F80000F004FBA28845F210539A423FF437AFFA
:10570800A120FDF78BFAFDF76BFAA080FDF768FA88
:10571800A0800002A080FDF763FAA38803439BB230
:10572800A38045F2617293427FF421AF41F6631280
:10573800A2801CE747F28972A2808DE7FDF77FFA05
:1057480030E7FDF750FB2DE7FDF763FC2AE7FEF78E
:1057580097FC27E7FEF7D6FB6420FFF799FD21E7C2
:105768000223059307930548036B826805A94068DF
:10577800FDF714FA3AE700BFA406002054060020FB
:105788002DE9F04107460E469846069D141AA4B224
:105798000134A4B20AE0ABB24FF0D84CACF8803078
:1057A800013292B2A242F6D30136B6B2464507D8C4
:1057B80031463846FFF7ECFBFFF7E0FB0022F1E744
:1057C800BDE8F0812DE9F04F85B0BDF8384001946F
:1057D8008046A2EB000A8946A3EB010BBAF1000F41
:1057E8000DDD01220292BBF1000F14DD01230393AA
:1057F800DA451CDD564600252F462C461BE0BAF13B
:10580800000F05D0A0EB020A4FF0FF320292EAE740
:10581800CDF808A0E7E7BBF1000F05D0A1EB030B1B
:105828004FF0FF330393E3E7CDF80CB0E0E75E46B3
:10583800E1E70134A4B2731C9C4213DC019A1FFAFD
:1058480089F11FFA88F0FFF715FD57445D44BE4201
:1058580002DABF1B029B9844AE42EADAAD1B039BF7
:105868009944E6E705B0BDE8F08F000042B19446E0
:105878000B4A1288824203D3094A52888A4200D2CC
:10588800704700B583B00CEB000292B2013A009366
:105898000B4692B2FFF774FF03B05DF804FB00BF3C
:1058A800A40600202DE9F04F83B0044600908B46F3
:1058B80010469A46904640F2C32909FB02F92B4A42
:1058C800A2FB09294FEA991909F10109420800FBCD
:1058D80000220192420092B2201A80B2FFF7C6FF5E
:1058E80001251AE008F1FF381FFA88F4009B1E1BF7
:1058F800B6B2AFB26400A4B207EB0B01534622461E
:1059080089B23046FFF7B2FFABEB07015346224698
:1059180089B23046FFF7AAFF01354D4523D808FB69
:1059280008F305FB0533019A9342DDD9C845D9D957
:10593800009B5F1BBFB20137BFB21FFA88F46E1E0F
:105948007600B6B204EB0B015346324689B23846AC
:10595800FFF78CFFABEB04015346324689B2384659
:10596800FFF784FFBEE703B0BDE8F08FD34D6210A8
:105978002DE9F04F85B0824688461F469DF838B01D
:10598800BDF83C30019317F0070318BF012303EB60
:10599800D703790811FB03F3DBB20293A2F12003CA
:1059A800DBB2A7F10C02142A5ED8DFE802F00B5D27
:1059B8005D5D155D5D5D5D5D5D5D1A5D5D5D5D5D9A
:1059C8005D5D210003EB4303294A02EB8303039344
:1059D80044464FF000093FE0264A02EB03130393C5
:1059E800F6E703EBC303244A02EB83030393EFE7D1
:1059F800224A02EB83130393EAE7019A21465046B1
:105A0800FFF738FC6D00EDB20134A4B21C4B5B8883
:105A1800A34229D9A4EB08039F4210D00136F6B25D
:105A2800072E15D815F0800FE7D1BBF1000FE9D18B
:105A3800144B1A6821465046FFF71CFCE2E70AF1AE
:105A4800010A1FFA8AFA0E4B1B8853450CD94446A3
:105A580009F101095FFA89F9029B994504D2039B70
:105A680013F809500026DBE705B0BDE8F08F00BF4A
:105A78005C600008D0640008C06A00081C78000850
:105A8800A40600200C0000202DE9F04F83B08246C8
:105A98000D469DF830700D9EBDF838B002441FFACF
:105AA80082F90B441FFA83F804460EE0454519D2E3
:105AB800CDF804B0002300933B4629462046FFF763
:105AC80057FF04EB5704A4B201363278A2F1200341
